:100000000C94340018950000189500001895000015
:10001000189500001895000018950000189500002C
:10002000189500001895000018950000189500001C
:10003000189500001895000018950000189500000C
:1000400018950000189500000C943D0518950000C7
:1000500018950000189500001895000018950000EC
:1000600018950000189500008FEF8DBFC8E8E0EBF1
:100070004E2E88E08EBFD8E0F7E05F2EA89584B7BB
:10008000082E877F84BF88E1992780936000909332
:100090006000EEEFF7E0A0E0B1E088278D933197A4
:1000A000E9F789E78093C40080E08093C50088E188
:1000B0008093C100662470E07093B9007CE0709377
:1000C000B8000E94EE153B9A389A0E946510789409
:1000D0007091C10078607093C1007091C1007F7E03
:1000E0007093C10080E0D2018C9381E00E9442169F
:1000F0000E94AE0F229681E00E943E16E8ECF6E1E7
:100100000E94781581E0D2018C9381E00E94421612
:1001100081E0D2018C9381E00E9442160E94B80DCA
:10012000249682E00E943E16E6E2FBE10E947815EA
:1001300081E0D2018C9381E00E9442168EE1D201CF
:100140008C9381E00E9442160E94B80D249682E0B2
:100150000E943E16D201E4E5F3E30E94521684E0C9
:100160000E94421681E0D2018C9381E00E944216E7
:1001700082E3D2018C9381E00E94421682E0D20198
:100180008C9381E00E9442160E948811289687E095
:100190000E943E16D201E4E5F3E30E94521684E089
:1001A0000E9442168AE5D2018C9381E00E94421699
:1001B00081E3D2018C9381E00E94421682E0D20159
:1001C0008C9381E00E9442160E948811289687E055
:1001D0000E943E16D201E8E5F3E30E94521682E047
:1001E0000E9442168EE6D2018C9381E00E94421654
:1001F00081E2D2018C9381E00E94421682E0D2011A
:100200008C9381E00E9442160E948811289685E016
:100210000E943E160E941A0F80E4809306058DE32B
:1002200080930A058AE080937205E2E0F0E00E9484
:10023000D01581E086B9009172050A3011F00C9456
:1002400056017091C1007F777093C1007091C10019
:1002500078607093C1007091C1007F7E7093C1007F
:1002600084EF0E94C91587E50E94C91581E00E94AC
:10027000C91580E00E94C91584EB0E94C9157091D0
:10028000C100777F7093C1007091C100706170935D
:10029000C10080E0809370057091C1007068709318
:1002A000C10081E4809372050C947902009172057B
:1002B000003011F00C94AA0180E080936F0582E079
:1002C0008093710500917105013418F011F00C94C0
:1002D000800100916F05A1E7B5E0AD90BB24ACE2D1
:1002E000B5E0AA0DBB1D4C91040FAFE6B5E00C9331
:1002F000A1E7B5E08C918F5F8C9310F40C946201B0
:1003000000912E05043F81E009F080E08F93009179
:100310006F05003081E009F080E09F9189238823F8
:1003200011F40C94A501ACE3B5E08C9180FBA7E738
:10033000B5E08C9187F98C93ACE3B5E08C9181FBAF
:10034000A7E7B5E08C9186F98C938BE080937205DA
:100350000C947902009172050B3011F00C94E501B8
:100360007091C1007F777093C1007091C100786077
:100370007093C1007091C1007F7E7093C10084EFC3
:100380000E94C91587E50E94C91581E00E94C91520
:1003900081E00E94C91583EB0E94C9157091C100CC
:1003A000777F7093C1007091C10070617093C1003C
:1003B00080E0809370057091C10070687093C100F7
:1003C00083E3809372050C947902009172050130E9
:1003D00011F00C94790280E080936F0582E08093A5
:1003E000710500917105033318F011F00C940F02A0
:1003F00000916F05A1E7B5E0AD90BB24ACE2B5E09C
:10040000AA0DBB1D4C91040FAFE6B5E00C93A1E71C
:10041000B5E08C918F5F8C9310F40C94F1010091F6
:100420002E05043F81E009F080E08F9300916F0575
:10043000003081E009F080E09F918923882311F446
:100440000C947602A0E5B5E08C91A3E7B5E08D931E
:1004500088278C93A3E7B5E00D911C914BE450E005
:100460000E944816A3E7B5E00D931C93A3E7B5E0FF
:100470000D911C91005A1F40A3E7B5E00D931C930A
:10048000A3E7B5E00D911C9144E650E00E948F1562
:10049000A3E7B5E04D935C93A1E5B5E08C91A5E7AA
:1004A000B5E08D9388278C93A5E7B5E00D911C915D
:1004B0004BE450E00E944816A5E7B5E00D931C936D
:1004C000A5E7B5E00D911C91005A1F40A5E7B5E0E6
:1004D0000D931C93A5E7B5E00D911C9144E650E007
:1004E0000E948F15A5E7B5E04D935C938AE0809359
:1004F0007205A5E7B5E00D911C910D3250E015078E
:100500000CF002C00C945903E5E7F5E0D190E080CF
:100510008FEFE7FE8827F82E082F0E94E8170E9429
:100520008A17E4E4F3E30E9415190E94B818EDE07D
:10053000F0E0A0E0B5E00E942D17E8E4F3E30E94AC
:100540002219E0E0F5E00E947B170E947918EDE0A7
:10055000F0E0A0E0B5E00E942D17E0E0F5E00E9499
:100560008D19EDE0F0E0A4E1B5E00E942D17E4E183
:10057000F5E00E944E19EDE0F0E0ACE0B5E00E943D
:100580002D17E4E1F5E00E949319EDE0F0E0A0E121
:10059000B5E00E942D17ECE4F3E30E942219ECE091
:1005A000F5E00E947B170E947918EDE0F0E00E94D0
:1005B0009017A4E0B5E0DC92A4E0B5E08C91805CFB
:1005C0008C93ECE4F3E30E942219E0E1F5E00E9451
:1005D0007B170E947918EDE0F0E00E949017A8E0E8
:1005E000B5E0DC92A8E0B5E08C91805C8C9380E46F
:1005F000D2018C9381E00E9442168DE3D2018C934C
:1006000081E00E94421680910605D2018C9381E020
:100610000E94421680910A05D2018C9381E00E94CB
:10062000421683E0D2018C9381E00E94421680E062
:10063000D2018C9381E00E9442160E9473132C9683
:1006400086E00E943E1680E4D2018C9381E00E94F5
:1006500042168DE3D2018C9381E00E944216809174
:100660000405D2018C9381E00E9442168091080516
:10067000D2018C9381E00E94421683E0D2018C93D8
:1006800081E00E9442168FEFD2018C9381E00E949C
:1006900042160E9473132C9686E00E943E168091AB
:1006A0000405809306058091080580930A050C9443
:1006B0001904A0E0B5E0E0E5F3E30E946816E8E481
:1006C000F3E30E942219E0E0F5E00E947B170E940C
:1006D0007918EDE0F0E0A0E0B5E00E942D17E0E031
:1006E000F5E00E948D19EDE0F0E0A4E1B5E00E9494
:1006F0002D17E4E1F5E00E944E19EDE0F0E0ACE0EA
:10070000B5E00E942D17E4E1F5E00E949319EDE0B9
:10071000F0E0A0E1B5E00E942D17ECE4F3E30E94C5
:100720002219ECE0F5E00E947B170E947918EDE0B9
:10073000F0E00E949017A4E0B5E0DC92A4E0B5E000
:100740008C91805C8C93ECE4F3E30E942219E0E14D
:10075000F5E00E947B170E947918EDE0F0E00E941E
:100760009017A8E0B5E0DC92A8E0B5E08C91805C41
:100770008C9380E4D2018C9381E00E9442168DE339
:10078000D2018C9381E00E94421680910605D2012D
:100790008C9381E00E94421680910A05D2018C93CD
:1007A00081E00E94421683E0D2018C9381E00E9496
:1007B000421680E0D2018C9381E00E9442160E9492
:1007C00073132C9686E00E943E1680E4D2018C932F
:1007D00081E00E9442168DE3D2018C9381E00E9459
:1007E000421680910405D2018C9381E00E9442164A
:1007F00080910805D2018C9381E00E94421683E02B
:10080000D2018C9381E00E9442168FEFD2018C932B
:1008100081E00E9442160E9473132C9686E00E948B
:100820003E1680910405809306058091080580930B
:100830000A05A7E7B5E08C9186FB16F00C94380406
:10084000ECEDFAE10E94781581E0D2018C9381E011
:100850000E9442168EE1D2018C9381E00E944216E2
:100860000E94B80D249682E00E943E160C944E041D
:10087000E6E2FBE10E94781581E0D2018C9381E0F1
:100880000E9442168EE1D2018C9381E00E944216B2
:100890000E94B80D249682E00E943E16E5E7F5E03E
:1008A000A8E1B5E00E94D816E8E1F5E0A8E9B7E0D4
:1008B0000E942817E8E9F7E0A8E1B5E01127222710
:1008C00003E033270E948316E8E1F5E0D2010E949D
:1008D000281785E10E94421681E0D2018C9381E0C5
:1008E0000E94421682E3D2018C9381E00E9442165C
:1008F00082E0D2018C9381E00E9442160E9488110E
:10090000289688E10E943E16A7E7B5E08C9187FB08
:1009100016F00C94E304E3E7F5E0A8E1B5E00E94EB
:10092000D816E8E1F5E0A8E9B7E00E942817E8E961
:10093000F7E0A8E1B5E01127222703E033270E9462
:100940008316E8E1F5E0D2010E94281785E10E94B4
:1009500042168AE5D2018C9381E00E94421681E31F
:10096000D2018C9381E00E94421682E0D2018C93E6
:1009700081E00E9442160E948811289688E10E9418
:100980003E16D201E8E5F3E30E94521682E00E948F
:1009900042168EE6D2018C9381E00E9442168EE1CF
:1009A000D2018C9381E00E94421682E0D2018C93A6
:1009B00081E00E9442160E948811289685E00E94DC
:1009C0003E160C943905E3E7F5E0A8E1B5E00E9496
:1009D000D816E8E1F5E0A8E9B7E00E942817E8E9B1
:1009E000F7E0A8E1B5E01127222703E033270E94B2
:1009F0008316E8E1F5E0D2010E94281785E10E9404
:100A000042168AE5D2018C9381E00E94421681E36E
:100A1000D2018C9381E00E94421682E0D2018C9335
:100A200081E00E9442160E948811289688E10E9467
:100A30003E16D201EAE5F3E30E94521682E00E94DC
:100A400042168EE6D2018C9381E00E9442168EE11E
:100A5000D2018C9381E00E94421682E0D2018C93F5
:100A600081E00E9442160E948811289685E00E942B
:100A70003E160E941A0F0C9419010F921F922F928A
:100A80003F924F925F927F92AF92BF920F931F93CC
:100A90002F933F934F935F936F937F938F939F9386
:100AA000AF93BF93CF93DF93EF93FF938FB78F9362
:100AB000A0E7B5E0AD90BB24ACE2B5E0AA0DBB1D4C
:100AC0008091C6008C9300917205013481E009F099
:100AD00080E08F934091720500917005041781E0CA
:100AE00009F080E09F918923882311F40C948205FA
:100AF00080E0809372057091C1007F777093C10090
:100B00000C949F0500917205033381E009F080E0A9
:100B10008F934091720500917005041781E009F0F0
:100B200080E09F918923882311F40C949F0581E034
:100B3000809372057091C1007F777093C100A0E728
:100B4000B5E08C918F5F8C938F918FBFFF91EF9168
:100B5000DF91CF91BF91AF919F918F917F916F91D5
:100B60005F914F913F912F911F910F91BF90AF9047
:100B70007F905F904F903F902F901F900F9018950F
:100B8000010606000000000000000000005F0000F9
:100B900000030700030700247E247E2400242B6A20
:100BA00012000063130864630036495620500000A9
:100BB0000307000000003E4100000000413E00002D
:100BC00000083E1C3E080008083E0808000060E0DF
:100BD000000000080808080800000060600000200D
:100BE00010080402003E5149453E0000427F40008B
:100BF00000625149494600224949493600181412F9
:100C00007F10002F49494931003C4A4949300001D1
:100C10007109050300364949493600064949291E2C
:100C20000000006C6C000000006CEC000008142256
:100C3000410000242424242400004122140800023E
:100C400001590906003E415D551E007E1111117EBD
:100C5000007F49494936003E41414122007F4141E0
:100C6000413E007F49494941007F09090901003E91
:100C70004149497A007F0808087F0000417F410010
:100C800000304040403F007F08142241007F404038
:100C90004040007F0204027F007F0204087F003E84
:100CA0004141413E007F09090906003E4151215E54
:100CB000007F090919660026494949320001017F70
:100CC0000101003F4040403F001F2040201F003FE7
:100CD000403C403F00631408146300070870080795
:100CE00000714945430000007F41410000020408B3
:100CF0001020000041417F000004020102048080B6
:100D00008080808000000307000000205454547845
:100D1000007F444444380038444444280038444464
:100D2000447F00385454540800087E090900001814
:100D3000A4A4A47C007F040478000000007D40008F
:100D4000004080847D00007F102844000000007F68
:100D50004000007C04180478007C0404780000380B
:100D60004444443800FC444444380038444444FC7F
:100D700000447844040800085454542000043E44BD
:100D80002400003C40207C00001C2040201C003C33
:100D90006030603C006C10106C00009CA0603C0057
:100DA000006454544C0000083E41410000000077AC
:100DB0000000000041413E08000201020100000065
:100DC00000000000020C18020000000000000000FB
:100DD0000000000000000000000000000000000013
:100DE000000000007CFFFF7C00000000000000000D
:100DF00000333300000000000000263E1E000026E5
:100E00003E1E000000000000000000000000000086
:100E100000000010F0FE1E10F0FE1E100000021E6A
:100E20001F03021E1F030000000078FCCCFFFFCC54
:100E3000CC8800000000040C0C3F3F0C0F070000A2
:100E40000000386C6C3880C0E070381C0000181C42
:100E50000E0703011C36361C000000B8FCC6E23E3B
:100E60001C00000000001F3F3121371E1C362200ED
:100E700000000000263E1E000000000000000000F0
:100E80000000000000000000000000F0FCFE070170
:100E900001000000000000030F1F382020000000A8
:100EA000000000010107FEFCF0000000000000202F
:100EB00020381F0F0300000000000098B8E0F8F889
:100EC000E0B898000000000C0E030F0F030E0C009A
:100ED000000000808080F0F0808080000000000131
:100EE00001010F0F010101000000000000000000DF
:100EF0000000000000000000004C7C3C00000000EE
:100F000000000080808080808080800000000001E0
:100F100001010101010101000000000000000000CA
:100F20000000000000000000003838380000000019
:100F3000000000000080C0E070381C0E00001C0E95
:100F400007030100000000000000F8FE0683C363F1
:100F5000331EFEF80000071F1B31303030181F070A
:100F60000000000C0C0EFFFF00000000000000302D
:100F700030303F3F3030300000001C1E070383C379
:100F8000E3773E1C0000383C3E37333130303030A0
:100F900000000C0E07C3C3C3C3E77E3C00000C1C5B
:100FA0003830303030391F0E0000C0E070381C0E71
:100FB000FFFF000000000707060606063F3F060683
:100FC0000000787F6763636363E3C38300000C1CE6
:100FD0003830303030381F0F0000C0F0F8DCCEC79A
:100FE000C3C3800000000F1F3930303030391F0F6D
:100FF00000000303030303C3F33F0F0300000000DB
:10100000303C0F0300000000000000BCFEE7C3C33B
:10101000E7FEBC0000000F1F3930303030391F0FA1
:1010200000003C7EE7C3C3C3C3E7FEFC0000003002
:101030003030381C0E070300000000000070707094
:101040000000000000000000001C1C1C000000004C
:101050000000000000707070000000000000000040
:10106000004C7C7C00000000000000C0E0F0381C58
:101070000E070300000000000103070E1C383000BB
:10108000000000606060606060606000000000065A
:10109000060606060606060000000003070E1C38BA
:1010A000F0E0C00000000030381C0E070301000013
:1010B00000001C1E070383C3E3773E1C00000000F2
:1010C00000003737000000000000FCFE03F31BFBAC
:1010D000FB07FEF800000F1F3033363737360301A9
:1010E00000000000E0FC1F1FFCE000000000383F93
:1010F0000706060606073F380000FFFFC3C3C3C349
:10110000E7FEBC0000003F3F3030303030391F0F69
:101110000000F0FC0E07030303070E0C0000030F92
:101120001C38303030381C0C0000FFFF0303030371
:10113000070EFCF000003F3F30303030381C0F030A
:101140000000FFFFC3C3C3C3C3C3030300003F3F8B
:1011500030303030303030300000FFFFC3C3C3C305
:10116000C3C3030300003F3F000000000000000075
:101170000000F0FC0E0703C3C3C3C7C60000030F83
:101180001C38303030303F3F0000FFFFC0C0C0C0CF
:10119000C0C0FFFF00003F3F0000000000003F3FD5
:1011A000000000000303FFFF030300000000000035
:1011B00030303F3F303000000000000000000000F1
:1011C0000000FFFF00000E1E3830303030381F079F
:1011D0000000FFFFC0E0F0381C0E070300003F3F97
:1011E000000103070E1C38300000FFFF0000000064
:1011F0000000000000003F3F3030303030303030F1
:101200000000FFFF1E78E0E0781EFFFF00003F3F78
:101210000000010100003F3F0000FFFF0E38F0C05A
:101220000000FFFF00003F3F00000003071C3F3F9E
:101230000000F0FC0E070303070EFCF00000030F94
:101240001C383030381C0F030000FFFF838383837A
:1012500083C7FE7C00003F3F010101010101000046
:101260000000F0FC0E070303070EFCF00000030F64
:101270001C3830363E1C3F330000FFFF83838383DE
:1012800083C7FE7C00003F3F010103070F1D38307C
:1012900000003C7EE7C3C3C3C3C78E0C00000C1C18
:1012A0003830303030391F0F000003030303FFFFD5
:1012B000030303030000000000003F3F00000000A4
:1012C0000000FFFF000000000000FFFF0000071FFC
:1012D0003830303030381F070000073FF8C00000BA
:1012E000C0F83F0700000000010F3E3E0F01000064
:1012F0000000FFFF000080800000FFFF00003F3F74
:101300001C060303061C3F3F0000030F1C30E0E0F7
:10131000301C0F030000303C0E030101030E3C3073
:101320000000030F3CF0C0C0F03C0F0300000000C1
:1013300000003F3F00000000000003030303C3E37D
:10134000331F0F030000303C3E333130303030303B
:1013500000000000FFFF0303030300000000000083
:101360003F3F30303030000000001C3870E0C0805B
:10137000000000000000000000000103070E1C1820
:101380000000000003030303FFFF00000000000053
:10139000303030303F3F0000000070381C0E070E28
:1013A0001C38700000000000000000000000000079
:1013B000000000000000000000000000C0C0C0C02D
:1013C000C0C0C0C0C0C0C0C000000000003E7E461B
:1013D000000000000000000000000000000000000D
:1013E00000000040606060606060E0C000001C3E83
:1013F0003333333333333F3F0000FFFFC06060605F
:1014000060E0C08000003F3F3030303030381F0F88
:10141000000080C0E06060606060C08000000F1F5E
:101420003830303030301808000080C0E060606034
:10143000E0C0FFFF00000F1F3830303030303F3F3A
:10144000000080C0E06060606060C08000000F1F2E
:101450003B333333333313010000000000F0F81C3A
:101460000C0C000000000003037F7F030303000057
:101470000000C0E0703030303030F0F00000016328
:101480006766666666733F1F0000FFFFC0606060AE
:10149000E0C0800000003F3F00000000003F3F0030
:1014A000000000000060ECEC000000000000000004
:1014B00030303F3F3030000000000000000000608E
:1014C000ECEC000000000000307060607F3F000026
:1014D000000000FFFF0080C0E06000000000003F4F
:1014E0003F03070F1C383000000000000003FFFF1F
:1014F000000000000000000030303F3F30300000AE
:101500000000E0C0E0E0C0C0E0E0C08000003F3F7D
:1015100000003F3F00003F3F000000E0E0C060608F
:1015200060E0C0800000003F3F00000000003F3F3F
:10153000000080C0E060606060E0C08000000F1FBD
:101540003830303030381F0F0000F0F0303030309D
:101550003070E0C000007F7F060C0C0C0C0E0703FF
:101560000000C0E0703030303030F0F00000030791
:101570000E0C0C0C0C067F7F000000E0E0C06060E9
:101580006060E0C00000003F3F000000000000007D
:10159000000000C0E060606060604000000000117A
:1015A00033333333333F1E000000006060FEFE60C3
:1015B0006060000000000000001F3F30303030004D
:1015C0000000E0E0000000000000E0E000000F1F6D
:1015D0003830303030183F3F000060E080000000BD
:1015E0000080E06000000001071E38381E0701007F
:1015F0000000E0E00000E0E00000E0E00000071F85
:10160000381C0F0F1C381F07000060E0C0800080EE
:10161000C0E06000000030381D0F070F1D3830009B
:101620000000000030F0C00000C0F03000000000FA
:101630000040733F0F03000000004060606060E006
:10164000E0602000000030383C363331303010008C
:1016500000000080C0F87C0E0606060000000000B6
:10166000010F1F3830303000000000000000FFFF85
:10167000000000000000000000003F3F00000000EC
:101680000000000606060E7CF8C080000000003056
:101690003030381F0F010000000040603010306013
:1016A000406030100000080C0602060C080C060210
:1016B00000000080C060303060C0800000000F0F6C
:1016C0000C0C0C0C0C0C0F0F4080000000000000F4
:1016D000000000000000000000000000000000000A
:1016E000000E1C00000000000000000000000000D0
:1016F00000112200000000000000000000000000B7
:1017000000112200000000000000000000000000A6
:101710000011220000000000000000000000000096
:10172000001F220000000000000000000000000078
:101730000001220000000000000000000000000086
:101740000003220000000000000000000000000074
:10175000001E1C000000000000000000000000004F
:101760000000000000000000000000000000000079
:101770000000000000000000000000000000000069
:1017800000008000000000000000000000000000D9
:1017900000008000000000000000000000000000C9
:1017A00000008000000000000000000000000000B9
:1017B00000008000000000000000000000000000A9
:1017C0000000800000000000000000011F00000079
:1017D0000000800000000000000000031000000076
:1017E000000080000000041C7C00000510000000C8
:1017F0000000000000001C22400000051E00000048
:101800000000000000000404400000090100000086
:10181000000000000000041C7800000F81000000A0
:1018200000000000000004020400000101000000AC
:101830000000000000000402040000011E0000007F
:10184000000000000000042204000000000000006E
:101850000000000000001F3C780000000040000075
:101860000000000000000000000000000020000058
:101870000000000000000000000000000010000058
:10188000000000000000040000000000000800004C
:10189000000000000000080000000000000400003C
:1018A0000000000000001000000000000002000026
:1018B0000000000000002000000000000000000008
:1018C00000000000000040000000000000000000D8
:1018D0000000000000000000000000000000000008
:1018E00000000000000000000000000000000000F8
:1018F00000000000000000000000000000000000E8
:1019000000000000000000000000000000000000D7
:1019100000000000000000000000000000000000C7
:1019200000000000000000000000000000000000B7
:1019300000000000000000000000000000000000A7
:101940000000000000000000000000000000000097
:101950000000000000000000000000000000000087
:101960000000000000000000000000000000000077
:101970000000000000000000000000000000000067
:101980000000000000000000000000000000000057
:101990000000000000000000000000000000000047
:1019A0000000000000000000000000000000000037
:1019B0000000000000000000000000000000000027
:1019C0000000000000000000000000000000000017
:1019D0000000000000000000000000000000000007
:1019E00000000000000000000000000000000000F7
:1019F00000000000000000000000000000000000E7
:101A000000000000000000000000000000000000D6
:101A100000000000000000000000000000000000C6
:101A200000000000000000000000000000000000B6
:101A300000000000000000000000000000000000A6
:101A40000000000000000000000000000000000096
:101A50000000000000000000000000000000000086
:101A60000000000000000000000000000000000076
:101A70000000000000000000000000000000000066
:101A80000000000000000000000000000000000056
:101A90000000000000000000000000000000000046
:101AA0000000000000000000000000000000000036
:101AB0000000000000000000000000000000000026
:101AC0000000000000000000000008101FC03FE000
:101AD0007FF0FFF8FFF8FFF8FFF80000181803B0D8
:101AE000000C0C0030E70020F90049F98059E08033
:101AF0005D80803DFC80FF7E808FCE0040EE804088
:101B0000EC004FCC8067C90021830018060007F85D
:101B100000000000000000000000000000000000C5
:101B2000000000000000181800000000000000E0A5
:101B30000000F80009F80019E0001D80003DFC00DD
:101B40003F7E000FCE0000EE0000EC000FCC00073F
:101B5000C80001800000000000000000000000003C
:101B60000000000000000000000000000000000075
:101B700081E00E94421681E00E94421681E00E94AC
:101B8000421681E00E94421681E00E94421681E0E6
:101B90000E94421681E00E9442160E947B15A88195
:101BA000B9810E9460160C920E9478150E947B15E4
:101BB000AA81BB810E9460160C920E947815A881B0
:101BC000B9810C91AE85BF854C91040FA881B98174
:101BD0000C93AA81BB810C91A889B9894C91040FFF
:101BE000AA81BB810C93AA81BB810E947E15A8812A
:101BF000B9810E947E15AE85BF858C91AA85BB8573
:101C00008C93A881B9814C91AA85BB850C9104174E
:101C100018F011F00C94A00EA889B9898C91AC85AC
:101C2000BD858C93AA81BB814C91AC85BD850C91FF
:101C3000041718F011F00C94980E0E947B15A885DB
:101C4000B9850E9460160C920E947815AC85BD85FE
:101C50008C91AC81BD818C9387E0AE81BF818C93E8
:101C6000AE81BF814C9100E0041718F011F00C9484
:101C7000900EAE81BF818C91A885B9850E947D169A
:101C80000E9473160C900822689409F4E89416F0E8
:101C90000C94680EAC81BD818C91D2018C9381E053
:101CA0000E944216AC85BD858C91D2018C9381E057
:101CB0000E9442168FEFD2018C9381E00E9442165F
:101CC0000E94A60E269683E00E943E160C94840E77
:101CD000AC81BD818C91D2018C9381E00E9442162F
:101CE000AC85BD858C91D2018C9381E00E94421617
:101CF00080E0D2018C9381E00E9442160E94A60EE1
:101D0000269683E00E943E16AC81BD818C918F5F48
:101D10008C93AE81BF810E947E1510F00C94300E22
:101D2000AC85BD858C91885F8C9310F40C94120E59
:101D3000AA85BB858C918F5F8C9310F40C94010E57
:101D400087E0481A80E0580A2E96089581E00E94A4
:101D5000421682E00E94421681E00E944216A88547
:101D6000B9850E947E15A885B9850C9148E00E942E
:101D70004317AC81BD810C93AC81BD810D911127BE
:101D800040E850E00E944816AA81BB810D931C9345
:101D9000AA81BB810D911C91AA85BB854D915527C8
:101DA000040F151FAA81BB810D931C93A885B985CB
:101DB0000C9148E00E944317A881B9818C93AE81B1
:101DC000BF810C91003011F00C94FE0EE894A881B4
:101DD000B9818C91AA81BB81AD90BD90AFEFB0E08D
:101DE000AA0DBB1D0E947D160E9473160C9016F062
:101DF000092201C0082A0C920C94140F6894A8813F
:101E0000B9818C91AA81BB81AD90BD90AFEFB0E05C
:101E1000AA0DBB1D0E947D160E9473160C9016F031
:101E2000092201C0082A0C9284E0481A80E0580A6E
:101E30002696089581E00E94421681E00E94421693
:101E400081E00E94421682E00E94421681E090E00A
:101E5000A881B9818D939C9380EBAE81BF818C93D7
:101E600080E4D2018C9381E00E9442160E945510BA
:101E7000229681E00E943E1680E0AC81BD818C9369
:101E8000AC81BD810C91073018F011F00C94A80FB3
:101E9000AE81BF818C91D2018C9381E00E94421669
:101EA0000E945510229681E00E943E1680E1D201E8
:101EB0008C9381E00E9442160E945510229681E088
:101EC0000E943E1680E0D2018C9381E00E9442166F
:101ED0000E945510229681E00E943E160E9405162F
:101EE00018E70E94191610E40E94191681E0AA81D1
:101EF000BB818C93AA81BB810C91003818F011F042
:101F00000C94990FA881B981AD90BD90AFEFB0E06E
:101F1000AA0DBB1D1C910E941916A881B9810E94AF
:101F20008215AA81BB818C918F5F8C9310F40C94E5
:101F30007A0F0E941116AE81BF818C918F5F8C93B6
:101F4000AC81BD818C918F5F8C9310F40C94400F09
:101F500085E0481A80E0580A2896089581E00E949A
:101F6000421681E00E94421682E00E94421680EBF7
:101F7000AC81BD818C9380E4D2018C9381E00E947E
:101F800042160E945510229681E00E943E1680E083
:101F9000AA81BB818C93AA81BB810C91073018F078
:101FA00011F00C942D10AC81BD818C91D2018C93D9
:101FB00081E00E9442160E945510229681E00E9404
:101FC0003E1680E1D2018C9381E00E9442160E946D
:101FD0005510229681E00E943E1680E0D2018C933B
:101FE00081E00E9442160E945510229681E00E94D4
:101FF0003E160E94051618E70E94191610E40E946A
:10200000191681E090E0A881B9818D939C93A881F5
:10201000B9810D911C91003850E0150718F011F0AE
:102020000C941E10AE81BF811C910E941916A881CC
:10203000B9810E94821510F40C9407100E941116A9
:10204000AC81BD818C918F5F8C93AA81BB818C9177
:102050008F5F8C9310F40C94CB0F81E090E0A881FB
:10206000B9818D939C93A881B9810D911C91003009
:1020700054E0150718F011F00C944F1080E0A8817F
:10208000B981AD90BD90AFEFB0E0AA0DBB1D8C93B0
:10209000A881B9810E94821510F40C94331084E059
:1020A000481A80E0580A269608950E94051618E7F7
:1020B0000E94191610E00E941916A881B9811C917E
:1020C0000E9419160E9411160895439884E690E024
:1020D0000E94DF15439A84E690E00E94DF158EEAA5
:1020E000D2018C9381E00E9442160E9455102296E4
:1020F00081E00E943E1685EDD2018C9381E00E9422
:1021000042160E945510229681E00E943E1680E8F9
:10211000D2018C9381E00E9442160E9455102296B3
:1021200081E00E943E1688EAD2018C9381E00E94F1
:1021300042160E945510229681E00E943E168FE3BF
:10214000D2018C9381E00E9442160E945510229683
:1021500081E00E943E1683EDD2018C9381E00E94C3
:1021600042160E945510229681E00E943E1680E0A1
:10217000D2018C9381E00E9442160E945510229653
:1021800081E00E943E168DE8D2018C9381E00E948E
:1021900042160E945510229681E00E943E1684E16C
:1021A000D2018C9381E00E9442160E945510229623
:1021B00081E00E943E1680E2D2018C9381E00E9471
:1021C00042160E945510229681E00E943E1680E041
:1021D000D2018C9381E00E9442160E9455102296F3
:1021E00081E00E943E1681EAD2018C9381E00E9438
:1021F00042160E945510229681E00E943E1688ECFD
:10220000D2018C9381E00E9442160E9455102296C2
:1022100081E00E943E168AEDD2018C9381E00E94FB
:1022200042160E945510229681E00E943E1682E1DD
:10223000D2018C9381E00E9442160E945510229692
:1022400081E00E943E1681E8D2018C9381E00E94D9
:1022500042160E945510229681E00E943E168FEF92
:10226000D2018C9381E00E9442160E945510229662
:1022700081E00E943E1689EDD2018C9381E00E949C
:1022800042160E945510229681E00E943E1681EF70
:10229000D2018C9381E00E9442160E945510229632
:1022A00081E00E943E168BEDD2018C9381E00E946A
:1022B00042160E945510229681E00E943E1684EA42
:1022C000D2018C9381E00E9442160E945510229602
:1022D00081E00E943E1686EAD2018C9381E00E9442
:1022E00042160E945510229681E00E943E168FEA07
:1022F000D2018C9381E00E9442160E9455102296D2
:1023000081E00E943E1684E690E00E94DF15089569
:1023100082E00E94421682E00E94421681E00E9402
:10232000421681E00E94421681E00E94421681E03E
:102330000E94421681E00E94421681E00E944216ED
:1023400081E00E94421681E00E94421681E00E94D4
:10235000421681E00E94421681E00E94421681E00E
:102360000E94421681E00E94421681E00E944216BD
:1023700081E00E94421682E00E944216AAA5BBA5F7
:102380000E945317082F41E0041BAA85BB850C93BC
:10239000ACA1BDA10C91013011F00C94F111E0E859
:1023A000FBE080E090E0AE89BF890E947016E0E813
:1023B000FBE081E090E0AC89BD890E947016E0E806
:1023C000FBE082E090E0AA89BB890E947016E0E8F9
:1023D000FBE083E090E0AC81BD810E9470160C941C
:1023E0001512023011F00C941512E4ECFDE080E0BF
:1023F00090E0AE89BF890E947016E4ECFDE081E0B8
:1024000090E0AC89BD890E947016E4ECFDE082E0AA
:1024100090E0AA89BB890E947016E4ECFDE083E09D
:1024200090E0AC81BD810E947016AA89BB890C9195
:10243000AE89BF894C910E944317A889B9890C9332
:10244000AE89BF890C9148E0049FA88DB98D0C928C
:10245000A88DB98D8C9181508C93A889B9898C9164
:1024600081508C9380E0AA8DBB8D8C93AA85BB850F
:102470004C91AA8DBB8D0C91041718F011F00C949F
:102480006D13AA8DBB8D0D9111270F5F1F4FA8A152
:10249000B9A10D931C93A8A1B9A18C91EAA5FBA5A4
:1024A00001E00A93ABA1BCA10E943317AAA1BBA172
:1024B0008C91082F112700521040A881B9810D93EB
:1024C0001C93A881B9810D911C91AA89BB894D915A
:1024D00055270E944816A881B9810D931C93A881A5
:1024E000B9810D911C910C5F1F4FA881B9810D938B
:1024F0001C93AA8DBB8D0D911127AC89BD894D917F
:1025000055270E944816A8A1B9A10D931C93A8A114
:10251000B9A10D911C91A8A5B9A54D915527040FFE
:10252000151FA8A1B9A10D931C9380E0AC85BD85B2
:102530008C93A88DB98D4C91AC85BD850C910417F9
:1025400018F011F00C946513A8A1B9A18C91A8857D
:10255000B9858C9380E0AE85BF858C93A889B989B5
:102560004C91AE85BF850C91041718F011F00C94B6
:102570005D13ACA1BDA10C91013011F00C94CC12F3
:10258000E0E8FBE0A881B9818D919C91AE8DBF8D73
:102590000E9470160C94DA12023011F00C94DA12C8
:1025A000E4ECFDE0A881B9818D919C91AE8DBF8D49
:1025B0000E947016AC85BD850C91AEA1BFA14C9157
:1025C000040FAE81BF810C9380E0AA81BB818C9304
:1025D000AA81BB810C91073018F011F00C944C13B8
:1025E000AE8DBF8D8C9180FBAC81BD81882780F939
:1025F0008C93AC81BD810C91013011F00C941E13B1
:10260000A885B9858C91D2018C9381E00E944216F5
:10261000A885B9858C91D2018C9381E00E944216E5
:102620008FEFD2018C9381E00E9442160E94A60E89
:10263000269683E00E943E160C943A13A885B9852D
:102640008C91D2018C9381E00E944216A885B985B5
:102650008C91D2018C9381E00E94421680E0D201DD
:102660008C9381E00E9442160E94A60E269683E07B
:102670000E943E1691E0AE8DBF8D0E945816AE812D
:10268000BF818C918F5F8C93AA81BB818C918F5F6E
:102690008C9310F40C94E812A881B9810E948215E1
:1026A000A885B9858C918F5F8C93AE85BF858C9101
:1026B0008F5F8C9310F40C94AE12AC85BD858C9119
:1026C000885F8C9310F40C949912AA8DBB8D8C9119
:1026D0008F5F8C9310F40C94361285E1481A80E0D9
:1026E000580AA496089581E00E94421681E00E9453
:1026F000421684E00E94421684E00E94421681E065
:102700000E94421684E00E94421681E00E94421616
:1027100081E00E94421681E00E94421681E00E9400
:102720004216EC8DFD8DD080EE24FF2400270E9400
:10273000E8170E948A172F933F934F935F93E88D7A
:10274000F98DD080EE24FF2400270E94E8175F91C6
:102750004F913F912F910E94B818EDE0F0E0AC85C9
:10276000BD850E942D17EE8DFF8DD080EE24FF24B5
:1027700000270E94E8170E948A172F933F934F93D8
:102780005F93EA8DFB8DD080EE24FF2400270E940A
:10279000E8175F914F913F912F910E94B818EDE09B
:1027A000F0E0AE85BF850E942D1780E0AA85BB852D
:1027B0008C93EC85FD850E942F19EDE0F0E0A88553
:1027C000B9850E942D17E885F9850E949017AA897E
:1027D000BB89DC92EE85FF850E942F19EDE0F0E0C9
:1027E000A885B9850E942D17E885F9850E94901764
:1027F000A889B989DC92A889B9894C91AA89BB8931
:102800000C91041718F011F00C9408140C94BE14D9
:10281000EC85FD850E948017EE85FF850E947B1761
:102820000E942018EDE0F0E0A885B9850E942D17E0
:10283000A88DB98D4C91AC8DBD8D0C91041718F0FD
:1028400011F00C9425140C943914AC8DBD8D0C91A1
:10285000A88DB98D8C91AC8DBD8D8C93A88DB98DC3
:102860000C93AA8DBB8D8C91AA81BB818C930C9407
:102870003F14AE8DBF8D8C91AA81BB818C93AC8DA2
:10288000BD8D8C91AA89BB898C93A88DB98D4C91F3
:10289000AA89BB890C91041718F011F00C94BC1490
:1028A000E885F9850E948017EA85FB85D080EE24B3
:1028B000FF2400270E94E8170E947918EDE0F0E05D
:1028C000AE85BF850E942D17EE85FF850E9490176B
:1028D000AE81BF81DC92AE81BF810C91AA81BB81A8
:1028E0004C91040FAE81BF810C9381E0A881B98126
:1028F0008C93AE89BF894C91A881B9810C91041742
:1029000018F011F00C94AF14AE81BF818C91D201FC
:102910008C9381E00E944216AC89BD898C91D201D2
:102920008C9381E00E944216A88DB98D8C91D201C2
:102930008C9381E00E9442160E94A60E269683E0A8
:102940000E943E16AE81BF818C918F5F8C93A881CF
:10295000B9818C918F5F8C9310F40C947914AA85B3
:10296000BB858C918F5F8C93AA89BB898C918F5F7B
:102970008C9310F40C9445140C947215EE85FF851D
:102980000E948017EC85FD850E947B170E9420180D
:10299000EDE0F0E0A885B9850E942D17AA8DBB8DCA
:1029A0004C91AE8DBF8D0C91041718F011F00C9462
:1029B000DB140C94EF14AE8DBF8D0C91AA8DBB8DE2
:1029C0008C91AE8DBF8D8C93AA8DBB8D0C93A88DF1
:1029D000B98D8C91AA81BB818C930C94F514AC8D2C
:1029E000BD8D8C91AA81BB818C93AE8DBF8D8C9156
:1029F000A889B9898C93AA8DBB8D4C91A889B98976
:102A00000C91041718F011F00C947215E885F985F3
:102A10000E948017EA85FB85D080EE24FF240027E2
:102A20000E94E8170E947918EDE0F0E0AC85BD85C2
:102A30000E942D17EC85FD850E949017AC81BD8109
:102A4000DC92AC81BD810C91AA81BB814C91040FB9
:102A5000AC81BD810C9381E0A881B9818C93AE8952
:102A6000BF894C91A881B9810C91041718F011F01D
:102A70000C946515A889B9898C91D2018C9381E059
:102A80000E944216AE81BF818C91D2018C9381E06D
:102A90000E944216A88DB98D8C91D2018C9381E051
:102AA0000E9442160E94A60E269683E00E943E16C1
:102AB000AC81BD818C918F5F8C93A881B9818C9101
:102AC0008F5F8C9310F40C942F15AA85BB858C9185
:102AD0008F5F8C93A889B9898C918F5F8C9310F448
:102AE0000C94FB1483E1481A80E0580A6496089518
:102AF0008E2E9F2E0895E82DF92D08958C918150EA
:102B00008C930895ED91FC91EF5FFF4FFC93EE9352
:102B1000089509D00E94481600FC10D0089503D0F3
:102B20001ED001F8F9CF0024E89457FF02C009D065
:102B3000689400F80BD010F80124089502D009D051
:102B40000895509540954F5F5F4F0895E89417FFA3
:102B50000895009510950F5F1F4F68940895352FC5
:102B6000242FE894452B11F468940895512F402F99
:102B70000027112780E1440F551F001F111F021B62
:102B8000130B416018F4020F131F4E7F8A9599F7BB
:102B900008950090C00005FEFCCF8093C600089504
:102BA00088EE93E00CD03197D9F708953197F1F77B
:102BB0000895689462F80895E89462F80895EF9390
:102BC000FF93EE27E82BE92B31F0E0EAFFE03197A5
:102BD000F1F70197D1F7FF91EF9108953C983D9857
:102BE000449A459A089568944093BC008F939F93AC
:102BF00088279927019629F04091BC0047FFFACF1A
:102C0000E8949F918F9162F8089544EAECDF409137
:102C1000B900487F483019F0403109F0689462F8F3
:102C2000089544E94093BC004091BC0044FDFCCFB2
:102C300008951093BB0044E8D6DF8F939F938827B5
:102C40009927019671F04091B900487F483FC9F338
:102C5000E894483139F0483229F0403419F04035D1
:102C600009F068949F918F9162F8089501911191F4
:102C7000219130810895481A590A0895481A8827E1
:102C8000580A089599275A924A92480E591E089553
:102C90000F92B801469F8001479F100D569F100D5F
:102CA0000F9008950E9460160D920020D9F70895A4
:102CB000903029F08C9186959A95E9F78C93089538
:102CC000C89531960020089591E005C092E003C0B8
:102CD00094E001C098E0F4DF0D929A95E1F7089531
:102CE000E80FF91FF1CF91E0882321F08894991F14
:102CF0008A95E9F7892F90950895883018F01196F4
:102D00008850FBCF08952E2E3F2E992781918D322A
:102D100009F093958823D1F79A95E22DF32D11238D
:102D200061F0091718F011F0101B01C0191B28F0F1
:102D300021F080E28D931A95E9F780818D3219F4A4
:102D40008D93319604C0222311F08BE28D930917E5
:102D500038F031F0091B21F080E38D930A95E9F7F3
:102D600081918D938823E1F7332351F0EA2FFB2FD4
:102D7000319633958E9182933A95E1F78EE28C935A
:102D80000895000F111F221F331F089500951095FD
:102D9000209530950F5F1F4F2F4F3F4F08950191A2
:102DA00010810FC00E9436160EC00E94361610C049
:102DB0000191108117FF05C03FEF2FEF04C0008184
:102DC00011272227332737FF03C0E0DF8DE28D93E1
:102DD000CF92DF92EF92AA24BB24CC24DD24EE24F0
:102DE00040E2EAE0FF2755E093E38081890F87FD09
:102DF0009F7083FD907F891B81935A95A9F7C1DF4E
:102E0000AA1CBB1CCC1CDD1CEE1C4A9551F7E89497
:102E1000EFE0FF2782910CD0EB30E0F71EF06894D2
:102E20008A2D0AD088278D93EF90DF90CF90089558
:102E3000982F829501D0892F8F70805D26F0803386
:102E400009F4089568948D93089588278D930895C3
:102E500081918D938823E1F7089594E081918D937A
:102E60009A95E1F7089509919191992359F08A95DE
:102E7000D9F73197002331F081918D930A958823FA
:102E8000C9F70895E2CFFF93881BF9E0001FFA9578
:102E900011F4FF910895881F841B18F4840F8894FF
:102EA000F5CF0894F3CF8FEF83959D919923E1F7A8
:102EB0000895B7FE089590E8B91611F4D0FE08956C
:102EC0009FEFD91AE90AF90A09F40395089588E0F1
:102ED0000FB6F8945A924A92E42DF52DA42DB52DF3
:102EE000480E8827581E0FBE08950FB6F8944990D3
:102EF00059900FBE0895D190E190F19001910895FD
:102F000021913191419151910895DD92ED92FD927F
:102F10000C930895502F2D2D3E2D4F2D612F089588
:102F2000EADF992711278F2D880F80E8F82A802F54
:102F3000881F08F41FEF41F08F57082F07FD04C0CA
:102F4000003240F08FEF01C08827982FD82EE82E4E
:102F5000F82E09C08FE1801B082FF694E794D794D0
:102F600097950A95D1F7112351F09095D094E0945C
:102F7000F09481E0980F8827D81EE81EF81E0F2DC8
:102F8000FE2CED2CD92E0895D094E094F09491E08D
:102F9000D90E9927E91EF91E10950895652F90E81E
:102FA000440F551F5927990F47956078102F90E8C7
:102FB000FF0C001F0927990FF79410780038089527
:102FC000FF0C90E89027110F9795F794092F08951B
:102FD000102FBD2CDE2CEF2CF02E11234AF4B094D0
:102FE000D094E094F0949FEFB91AD90AE90AF90A4B
:102FF0000EE1FF2039F4FE2CED2CDB2CBB24085015
:10300000C2F752C032F00A95BB0CDD1CEE1CFF1C4F
:10301000F9CF4FDFD5CF2DEC3CEC4CEC5DE36627D0
:103020000FC069DF77DFDD24EE2490E8F92E0FE38F
:1030300007C066DF05C02227332740E251E4662738
:10304000552351F1002381F1A9DF71F116270058B2
:1030500050580894050B18F407FD03C025C007FD60
:1030600023C0469537952795F694E794D79425D0B5
:10307000FF202AF0DD0CEE1CFF1C015073F09D2D8B
:10308000969548F0DD203AF4EE202AF491E0D90E2E
:103090009927E91EF91E94CF07C09FE7092FF92A47
:1030A0009FEFD92EE92E0895DD24EE24FF2400277A
:1030B000112708950FE79FEFF2CF9F929924AA243A
:1030C000BB2488E1D216E306F40628F0D21AE30AFC
:1030D000F40A089401C08894991CAA1CBB1CDD0C3E
:1030E000EE1CFF1C8A9571F7D92CEA2CFB2C9F90C3
:1030F000089554DFD9F05038C9F016270058952F9D
:1031000090580894091F12F418F40EC008F00EC06D
:103110000FD0FF202AF0BB0CDD1CEE1CFF1C02C0F0
:10312000039513F0C6DE4CCF0C944D180C94541834
:103130009F92FF92EF928D2DFF24EE24DD24BB247D
:1031400093E0849F1001829FB00CD11CE21CF31C01
:10315000839FD00CE11C2224F21C9A9531F0BD2CE7
:10316000DE2CEF2CFF248F91ECCF9F900895C8DECA
:1031700015DF503829F090E869270CC00AF045D0D7
:103180001FCF5FE322273327442701C0B9DE06DFC4
:103190005038B1F3003899F3902F951B8BF312F44C
:1031A00034D0FACF983118F02227332744279830AB
:1031B00028F0232F342F44279850F9CF992329F052
:1031C0004695379527959A95D9F7912F962742F0EE
:1031D00014D0B0F6F794E794D7940F5F8BF65DCFD9
:1031E00010D051F008F4D0DEFF2052F2DD0CEE1CBE
:1031F000FF1C0150CBF751CF57CFD20EE31EF41E68
:103200000895D21AE30AF40A0895DF92EF92FF922A
:103210000F931F93D22EE32EF42E052F162F6F91AE
:103220005F914F913F912F9108950E946016D02C8D
:103230000E946016E02C0E946016F02C0E9460161E
:10324000002D08950E946016202D0E946016302DDA
:103250000E946016402D0E946016502D08954BDE8E
:103260000F77089548DE9ADE0395AAF087E1DD0C1A
:10327000EE1CFF1C8A9589F00A95CAF7FF205AF0C8
:1032800000240D280E280F28002039F00A95DD0CA7
:10329000EE1CFF1CDAF70A9593CE06CF2CDE85E0F4
:1032A00017DE0F7723E839EF42E25EE322DFDBDF50
:1032B0002CDE139727D08A3F40F000688D3F18F42A
:1032C00060DF80E803C039D062DF8827848322DE94
:1032D00010DF1BDE139729EA3EE64CE952EC09DFCA
:1032E00022E332E541E852E414D022ED32EE4DE91A
:1032F00051EC0FD020E93FEF4FE75FE348DF8481D7
:103300000827F3CD802F9F2D991F881F991F881F95
:1033100008953DDFF5DD3497ECCEEDDD25E33AEFA2
:103320004EE85CE3E6CEE7DD002331F02BED3FE035
:1033300049EC5FEB2CDFB3CFB7CE5FE340E8332738
:103340002227089500003443000080BF000034426B
:0C335000000007433F3F3F002A00200020
:00000001FF
