:1000000012C0189518951895189518951895189563
:1000100018951895189555C118951895189518950F
:100020001895189518958FE58DBFC0E4EEE14E2E1A
:1000300084E08EBFD4E0F4E05F2EA89584B7082E4C
:10004000877F84BF88E1992781BD91BDEEEFF3E002
:10005000A0E6B0E088278D933197E9F788E989B960
:1000600080E080BD88E18AB972E07BB96624579A46
:10007000A09AA89A789481E08093E900E5E0F0E006
:10008000D3D0E0E6F3E0F8D0FDD080E08093E80044
:1000900084EFC6D086E5C4D088E0C2D08EEAC0D056
:1000A00084E690E0FBD084EFBBD087E5B9D081E057
:1000B000B7D080E0B5D084EBB3D05398549AA2EA7D
:1000C000B0E02AD181E08093E9000091E900023498
:1000D00010F009F02DC07AD0082F003009F001C0CF
:1000E000FACF7AD0A9EEB0E0AD90BB24A4EAB0E09C
:1000F000AA0DBB1D8C930091E900023010F009F0AD
:1001000001C00FC00091E800A9EEB0E0AD90BB24A3
:10011000A4EAB0E0AA0DBB1D4C91040FA8EEB0E01C
:100120000C93A9EEB0E08C918F5F8C9308F4CDCF47
:10013000539A54980091A700043F81E009F080E0B1
:100140008F930091E800003081E009F080E09F91FA
:100150008923882309F426C083E08093EA00009174
:10016000EA00023410F009F019C0A6E0B4E0EAEEAB
:10017000F0E0A190BB24E4EAF0E0EA0DFB1DD5D04D
:1001800085D0E6E6F3E078D08AE090E087D0AAEE6A
:10019000B0E08C918F5F8C9308F4E1CFE8E6F3E058
:1001A0006BD070D080E08093A7006FCF0091E80003
:1001B000A9EEB0E0AD90BB24A4EAB0E0AA0DBB1D4F
:1001C0004C91040FA8EEB0E00C9308958091A40028
:1001D000882309F081E008950F929F93AF93BF9316
:1001E0007F938091A4008823E1F3F8948091A40088
:1001F0008A958093A4009091A200A0E6B0E0A90F98
:100200000024B01D8C919395923409F49927909312
:10021000A20078947F91BF91AF919F910F90089524
:100220005D9BFECF8CB9089588EE93E037D031976F
:10023000D9F708953197F1F70895689462F8089511
:10024000E89462F808958F939F938DE790E001976B
:10025000F1F79F918F91089580952AE090E008949E
:1002600010F4A89802C0A89A0000EDDFECDF969584
:1002700087952A95A9F7089520D0802D11F0ECDFFD
:10028000FBCF08958DE0E8DF8AE0E6CFA6E0B4E09A
:100290008D91882311F0E0DFFBCF0895EF93FF935A
:1002A000EE27E82BE92B31F0E4ECF9E03197F1F798
:1002B0000197D1F7FF91EF910895C89531960020ED
:1002C00008957F930F93AF93BF938F939F938FB7AF
:1002D0008F938091A40002E4081B19F49CB1ADDF58
:1002E00012C00091A300A0E6B0E077279CB1A00F58
:1002F000B71F9C9383958093A4000395023409F45F
:1003000000270093A3008F918FBF9F918F91BF9182
:10031000AF910F917F9118956FB7F894882793E06C
:100320008D939A95E9F76FBF089541E003C042E0CD
:1003300001C044E0E40F8827F81F8291982F82952E
:1003400005D0892F03D04A95C1F707C08F708A3036
:1003500008F0895F805D8D93089588278D930895B7
:0E0360005374617274002000206F6B20000047
:00000001FF
