:100000000C94340018950000189500001895000015
:10001000189500001895000018950000189500002C
:10002000189500001895000018950000189500001C
:10003000189500001895000018950000189500000C
:1000400018950000189500000C944E0318950000B8
:1000500018950000189500001895000018950000EC
:1000600018950000189500008FEF8DBFC0EEEEEBE5
:100070004E2E88E08EBFD8E0F8E05F2EA89584B7BA
:10008000082E877F84BF88E1992780936000909332
:100090006000EEEFF7E0A0E0B1E088278D933197A4
:1000A000E9F788E98093C40080E08093C50088E187
:1000B0008093C10072E07093C00066247091C1000B
:1000C00070687093C100219A299A78947091C10048
:1000D00078607093C1007091C1007F7E7093C10001
:1000E00081E080938901E5E0F0E00E940003E2E412
:1000F000F7E00E9428030E942F0380E0809388018C
:1001000084EF0E94F90286E50E94F90288E00E94CD
:10011000F9028EEA0E94F90284E690E00E943B0315
:1001200084EF0E94F90287E50E94F90281E00E94B3
:10013000F90280E00E94F90284EB0E94F9027091BA
:10014000C100777F7093C1007091C100706170939E
:10015000C100A2E4B1E00E947C0381E080938901A8
:1001600000918901023418F011F00C94EB000E9408
:10017000CF02082F003011F00C94C0000C94B7008F
:100180000E94D502A9E8B1E0AD90BB24A4E4B1E09F
:10019000AA0DBB1D8C9300918901023018F011F05B
:1001A0000C94D4000C94E30000918801A9E8B1E01C
:1001B000AD90BB24A4E4B1E0AA0DBB1D4C91040F8B
:1001C000A8E8B1E00C93A9E8B1E08C918F5F8C9323
:1001D00010F40C94B0007091C10078607093C1006D
:1001E0007091C1007F7E7093C10000914701043F70
:1001F00081E009F080E08F9300918801003081E078
:1002000009F080E09F918923882311F40C943A012E
:10021000E8E4F7E00E94280383E080938A010091DC
:100220008A01023418F011F00C943401A6EAB8E007
:10023000EAE8F1E0A190BB24E4E4F1E0EA0DFB1D63
:100240000E9485030E943303E2E5F7E00E94280341
:100250008AE090E00E943B03AAE8B1E08C918F5FB6
:100260008C9310F40C940F01E4E5F7E00E9428034E
:100270000E942F0380E08093470184EF0E94F902DF
:1002800086E50E94F90288E00E94F9028EEA0E9447
:10029000F90284E690E00E943B0384EF0E94F90299
:1002A00087E50E94F90281E00E94F90281E00E9444
:1002B000F90283EB0E94F9027091C100777F70937D
:1002C000C1007091C10070617093C100A2E4B1E0FF
:1002D0000E947C0380E08093880181E08093890103
:1002E00000918901043318F011F00C94AB010E94C5
:1002F000CF02082F003011F00C9480010C9477018C
:100300000E94D502A9E8B1E0AD90BB24A4E4B1E01D
:10031000AA0DBB1D8C9300918901023018F011F0D9
:100320000C9494010C94A30100918801A9E8B1E018
:10033000AD90BB24A4E4B1E0AA0DBB1D4C91040F09
:10034000A8E8B1E00C93A9E8B1E08C918F5F8C93A1
:1003500010F40C9470017091C10078607093C1002A
:100360007091C1007F7E7093C10000914701043FEE
:1003700081E009F080E08F9300918801003081E0F6
:1003800009F080E09F918923882311F40C94FA01ED
:10039000EAE5F7E00E94280383E080938A01009158
:1003A0008A01043318F011F00C94F401A6EAB8E0C5
:1003B000EAE8F1E0A190BB24E4E4F1E0EA0DFB1DE2
:1003C0000E9485030E943303E2E5F7E00E942803C0
:1003D0008AE090E00E943B03AAE8B1E08C918F5F35
:1003E0008C9310F40C94CF01E4E5F7E00E9428030D
:1003F0000E942F0380E08093470184EF0E94F9025E
:1004000086E50E94F90288E00E94F9028EEA0E94C5
:10041000F90284E690E00E943B0384EF0E94F90217
:1004200087E50E94F90281E00E94F90282E00E94C1
:10043000F90282EB0E94F9027091C100777F7093FC
:10044000C1007091C10070617093C100A2E4B1E07D
:100450000E947C0380E08093880181E08093890181
:10046000009189010B3318F011F00C946B020E947B
:10047000CF02082F003011F00C9440020C94370288
:100480000E94D502A9E8B1E0AD90BB24A4E4B1E09C
:10049000AA0DBB1D8C9300918901023018F011F058
:1004A0000C9454020C94630200918801A9E8B1E015
:1004B000AD90BB24A4E4B1E0AA0DBB1D4C91040F88
:1004C000A8E8B1E00C93A9E8B1E08C918F5F8C9320
:1004D00010F40C9430027091C10078607093C100E8
:1004E0007091C1007F7E7093C10000914701043F6D
:1004F00081E009F080E08F9300918801003081E075
:1005000009F080E09F918923882311F40C94BA02AA
:10051000E4E6F7E00E94280383E080938A010091DB
:100520008A010B3318F011F00C94B402A6EAB8E07B
:10053000EAE8F1E0A190BB24E4E4F1E0EA0DFB1D60
:100540000E9485030E943303E2E5F7E00E9428033E
:100550008AE090E00E943B03AAE8B1E08C918F5FB3
:100560008C9310F40C948F02E4E5F7E00E942803CA
:100570000E942F0380E0809347010C947D0000913E
:100580008801A9E8B1E0AD90BB24A4E4B1E0AA0DD4
:10059000BB1D4C91040FA8E8B1E00C930895809125
:1005A0004401882309F081E008950F929F93AF934F
:1005B000BF937F93809144018823E1F3F894809165
:1005C00044018A958093440190914201A0E0B1E0FA
:1005D000A90F0024B01D8C919395923409F49927AA
:1005E0009093420178947F91BF91AF919F910F902A
:1005F00008950090C00005FEFCCF8093C6000895CA
:1006000088EE93E038D03197D9F708953197F1F714
:100610000895689462F80895E89462F808958F93B5
:100620009F938DE790E00197F1F79F918F91089547
:1006300080952AE090E0089410F4299802C0299A45
:100640000000EDDFECDF969587952A95A9F70895D0
:100650000E944A03802D11F0EBDFFACF08958DE060
:10066000E7DF8AE0E5CFA6EAB8E08D91882311F0B4
:10067000DFDFFBCF0895EF93FF93EE27E82BE92B05
:1006800031F0E4ECF9E03197F1F70197D1F7FF9100
:10069000EF910895C8953196002008957F930F93A8
:1006A000AF93BF938F939F938FB78F9380914401A4
:1006B00002E4081B29F49091C6000E94090313C0AC
:1006C00000914301A0E0B1E077279091C600A00F10
:1006D000B71F9C938395809344010395023409F4DA
:1006E0000027009343018F918FBF9F918F91BF91FE
:1006F000AF910F917F9118956FB7F894882793E089
:100700008D939A95E9F76FBF089541E003C042E0E9
:1007100001C044E0E40F8827F81F8291982F82954A
:1007200006D0892F04D04A95C1F70C949E038F7090
:100730008A3008F0895F805D8D93089588278D93B6
:1007400008955374617274006D6F646520303A20AF
:1007500000002000206F6B2000006D6F6465203169
:0E0760003A2000006D6F646520323A200000E0
:00000001FF
