:1000000012C0189518951895189518951895189563
:10001000189518951895C1C01895189518951895A4
:100020001895189518958FE58DBFC0E4EEE14E2E1A
:1000300084E08EBFD4E0F4E05F2EA89584B7082E4C
:10004000877F84BF88E1992781BD91BDEEEFF3E002
:10005000A0E6B0E088278D933197E9F788E989B960
:1000600080E080BD88E18AB972E07BB96624A09AFD
:10007000A89A579A5798789481E08093A200E5E077
:10008000F0E0EBD0E8EFF3E010D115D1539A54989B
:1000900080E08093A10084EFDCD086E5DAD088E0B0
:1000A000D8D08EEAD6D084E690E011D184EFD1D0BA
:1000B00087E5CFD081E0CDD080E0CBD084EBC9D034
:1000C00070E07CB95398549A579AECE2F0E0A6E0BD
:1000D000B4E031D1F4D0EEEFF3E0E7D0E2EAF0E0C3
:1000E000A6E0B4E028D1EBD0E6D00091A200033422
:1000F00008F001C0FACF5798539A549880E0809343
:10010000A20000916200043F81E009F080E08F933B
:100110000091A100003081E009F080E09F918923E7
:10012000882309F426C083E08093A3000091A300F4
:10013000023410F009F019C0A6E0B4E0E3EAF0E000
:10014000A190BB24EFE5F0E0EA0DFB1D3AD1B7D05A
:10015000E2E0F4E0AAD08AE090E0B9D0A3EAB0E00F
:100160008C918F5F8C9308F4E1CFE4E0F4E09DD0B4
:10017000A2D080E0809360008BCF0091A100A2EA22
:10018000B0E0AD90BB24AFE5B0E0AA0DBB1D4C9133
:10019000040FA1EAB0E00C9308950F921F922F92E2
:1001A0003F924F925F927F92AF92BF920F931F93B5
:1001B0002F933F934F935F936F937F938F939F936F
:1001C000AF93BF93CF93DF93EF93FF938FB78F934B
:1001D000A2EAB0E0AD90BB24AFE5B0E0AA0DBB1D34
:1001E0008CB18C930091A200023010F009F001C094
:1001F0000FC00091A100A2EAB0E0AD90BB24AFE532
:10020000B0E0AA0DBB1D4C91040FA1EAB0E00C9325
:10021000A2EAB0E08C918F5F8C938F918FBFFF919A
:10022000EF91DF91CF91BF91AF919F918F917F918E
:100230006F915F914F913F912F911F910F91BF90BF
:10024000AF907F905F904F903F902F901F900F90B6
:1002500018955D9BFECF8CB9089588EE93E037D05A
:100260003197D9F708953197F1F70895689462F8B6
:100270000895E89462F808958F939F938DE790E036
:100280000197F1F79F918F91089580952AE090E072
:10029000089410F4A89802C0A89A0000EDDFECDFE3
:1002A000969587952A95A9F7089525D0802D11F068
:1002B000ECDFFBCF08958DE0E8DF8AE0E6CFA6E033
:1002C000B4E08D91882311F0E0DFFBCF0895EF9328
:1002D000FF93EE27E82BE92B31F0E4ECF9E03197BE
:1002E000F1F70197D1F7FF91EF91089501911191E5
:1002F000219130810895C895319600200895000F0E
:10030000111F221F331F08950095109520953095D9
:100310000F5F1F4F2F4F3F4F0895019110810DC068
:10032000E5DF0DC0E3DF10C00191108117FF05C0AC
:100330003FEF2FEF04C0008111272227332737FF1B
:1003400003C0E2DF8DE28D93CF92DF92EF92AA2479
:10035000BB24CC24DD24EE2440E2EAE0FF2755E074
:1003600093E38081890F87FD9F7083FD907F891BB8
:1003700081935A95A9F7C3DFAA1CBB1CCC1CDD1CBA
:10038000EE1C4A9551F7E894EFE0FF2782910CD0DC
:10039000EB30E0F71EF068948A2D0AD088278D9301
:1003A000EF90DF90CF900895982F829501D0892FFC
:1003B0008F70805D26F0803309F4089568948D93E2
:1003C000089541E003C042E001C044E0E40F882703
:1003D000F81F8291982F829505D0892F03D04A95D6
:1003E000C1F707C08F708A3008F0895F805D8D93F8
:1003F000089588278D93089553746172740020695D
:0A0400003D002000206F6B2000007B
:00000001FF
