:1000000012C0189518951895189518951895189563
:10001000189518951895CDC0189518951895189598
:100020001895189518958FE58DBFC0E4E6E24E2E21
:1000300084E08EBFD4E0F4E05F2EA89584B7082E4C
:10004000877F84BF88E1992781BD91BDEEEFF3E002
:10005000A0E6B0E088278D933197E9F780E489B96D
:1000600080E080BD88E18AB96624579A7894E5E0FB
:10007000F0E078D0ECECF2E068D06DD080E08093D6
:10008000AB000091AB00063410F009F011C02BD08A
:10009000082F013009F005C02CD0A9EAB0E08C93FC
:1000A00000C0ABEAB0E08C918F5F8C9308F4E9CF8D
:1000B0000091AA004091A900040FAAEAB0E00C93B5
:1000C000AAEAB0E08C9180508C93E2EDF2E03DD052
:1000D000EAEAF0E0AEE0B4E0B3D02FD03CD0E5E007
:1000E000F0E040D0CBCF8091A800882309F081E0D8
:1000F00008950F929F93AF93BF937F938091A80031
:100100008823E1F3F8948091A8008A958093A80051
:100110009091A600A0E6B0E0A90F0024B01D8C913C
:100120009395963409F499279093A60078947F913B
:10013000BF91AF919F910F900895AEE0B4E08D9183
:10014000882311F00BD0FBCF08952FD0802D11F014
:1001500005D0FBCF08958DE001D08AE05D9BFECFF6
:100160008CB9089588EE93E00CD03197D9F70895B3
:100170003197F1F70895689462F80895E89462F869
:100180000895EF93FF93EE27E82BE92B31F0E4EC91
:10019000F9E03197F1F70197D1F7FF91EF910895C9
:1001A00001911191219130810895C89531960020D7
:1001B00008957F930F93AF93BF938F939F938FB7C0
:1001C0008F938091A80006E4081B19F49CB1D3DF3B
:1001D00012C00091A700A0E6B0E077279CB1A00F65
:1001E000B71F9C9383958093A8000395063409F468
:1001F00000270093A7008F918FBF9F918F91BF9190
:10020000AF910F917F911895000F111F221F331F7F
:10021000089500951095209530950F5F1F4F2F4F33
:100220003F4F0895019110810DC0BADF0DC0B8DFB6
:1002300010C00191108117FF05C03FEF2FEF04C0E0
:10024000008111272227332737FF03C0E2DF8DE229
:100250008D93CF92DF92EF92AA24BB24CC24DD248D
:10026000EE2440E2EAE0FF2755E093E38081890F26
:1002700087FD9F7083FD907F891B81935A95A9F715
:10028000C3DFAA1CBB1CCC1CDD1CEE1C4A9551F71D
:10029000E894EFE0FF2782910CD0EB30E0F71EF0FE
:1002A00068948A2D0AD088278D93EF90DF90CF90A5
:1002B0000895982F829501D0892F8F70805D26F048
:1002C000803309F4089568948D930895537461728E
:0A02D000740073756D613A200000A0
:00000001FF
