:100000000C942A001895000018950000189500001F
:10001000189500001895000018950000189500002C
:10002000189500001895000018950000189500001C
:10003000189500000C94C101189500001895000057
:1000400018950000189500001895000018950000FC
:10005000189500008FE58DBFC0E1EAE64E2E88E0DE
:100060008EBFD8E0F7E05F2EA89584B7082E877F73
:1000700084BF88E1992781BD91BDEEEFF7E0A0E64E
:10008000B0E088278D933197E9F789E789B980E057
:1000900080BD88E18AB96624D09AD89A70E071B997
:1000A0007CE070B90E949D0CA29A0E94E8047894AA
:1000B000539A5498E3E0F0E00E94530CEEEEFEE118
:1000C0000E947B0C0E94820C8AE08093D20484E61A
:1000D00090E00E948E0C0091D2040A3011F00C9432
:1000E0009A005798539A549884EF0E944F0C86E5D3
:1000F0000E944F0C88E00E944F0C8EEA0E944F0C29
:1001000084EF0E944F0C87E50E944F0C81E00E9413
:100110004F0C80E00E944F0C84EB0E944F0C5398D0
:10012000549A80E08093D004579A81E48093D2045B
:100130000C94BF010091D204003011F00C94160110
:1001400080E08093CF0482E08093D1040091D104B9
:10015000013418F011F00C94C4000091CF04A1ED0B
:10016000B4E0AD90BB24ACE8B4E0AA0DBB1D4C914B
:10017000040FAFECB4E00C93A1EDB4E08C918F5F71
:100180008C9310F40C94A60000918E04043F81E03F
:1001900009F080E08F930091CF04003081E009F0F6
:1001A00080E09F918923882311F40C941101E4EFDE
:1001B000FEE10E947B0C82E08093D1040091D10487
:1001C000013418F011F00C940301A2E5B7E0E1ED61
:1001D000F4E0A190BB24ECE8F4E0EA0DFB1D0E94E2
:1001E000890D0E94860CEEEFFEE10E947B0C8AE0F6
:1001F00090E00E948E0CA1EDB4E08C918F5F8C9307
:1002000010F40C94DE00E0E0FFE10E947B0CEFECC8
:10021000F4E0A2E5B7E00E94430D0E94860C0E9424
:10022000820C8BE08093D2040C94BF010091D20425
:100230000B3011F00C9445015798539A549884EF61
:100240000E944F0C86E50E944F0C88E00E944F0CE4
:100250008EEA0E944F0C84EF0E944F0C87E50E94AB
:100260004F0C81E00E944F0C81E00E944F0C83EB09
:100270000E944F0C5398549A80E08093D004579A70
:1002800083E38093D2040C94BF010091D204013027
:1002900011F00C94BF0180E08093CF0482E0809342
:1002A000D1040091D104033318F011F00C946F01C4
:1002B0000091CF04A1EDB4E0AD90BB24ACE8B4E074
:1002C000AA0DBB1D4C91040FAFECB4E00C93A1ED53
:1002D000B4E08C918F5F8C9310F40C9451010091D9
:1002E0008E04043F81E009F080E08F930091CF04F9
:1002F000003081E009F080E09F918923882311F488
:100300000C94BC01E6E0FFE10E947B0C82E080934C
:10031000D1040091D104033318F011F00C94AE0114
:10032000A2E5B7E0E1EDF4E0A190BB24ECE8F4E055
:10033000EA0DFB1D0E94890D0E94860CEEEFFEE186
:100340000E947B0C8AE090E00E948E0CA1EDB4E04C
:100350008C918F5F8C9310F40C948901E0E0FFE1A5
:100360000E947B0CEFECF4E0A2E5B7E00E94430DA5
:100370000E94860C0E94820C8AE08093D2040C9426
:1003800067000F921F922F923F924F925F927F923F
:10039000AF92BF920F931F932F933F934F935F930F
:1003A0006F937F938F939F93AF93BF93CF93DF937D
:1003B000EF93FF938FB78F93A0EDB4E0AD90BB2484
:1003C000ACE8B4E0AA0DBB1D8CB18C930091D204B3
:1003D000013481E009F080E08F934091D2040091D4
:1003E000D004041781E009F080E09F9189238823DD
:1003F00011F40C94010280E08093D20457980C947D
:100400001A020091D204033381E009F080E08F9357
:100410004091D2040091D004041781E009F080E0FB
:100420009F918923882311F40C941A0281E0809310
:10043000D2045798A0EDB4E08C918F5F8C938F918C
:100440008FBFFF91EF91DF91CF91BF91AF919F91BE
:100450008F917F916F915F914F913F912F911F915C
:100460000F91BF90AF907F905F904F903F902F90F3
:100470001F900F90189581E00E94EA0C81E00E9485
:10048000EA0C81E00E94EA0C81E00E94EA0C81E023
:100490000E94EA0C81E00E94EA0C81E00E94EA0CD2
:1004A0000E94180CA881B9810E94020D0C920E9432
:1004B000150C0E94180CAA81BB810E94020D0C929F
:1004C0000E94150CA881B9810C91AE85BF854C9115
:1004D000040FA881B9810C93AA81BB810C91A889D2
:1004E000B9894C91040FAA81BB810C93AA81BB816D
:1004F0000E941B0CA881B9810E941B0CAE85BF8590
:100500008C91AA85BB858C93A881B9814C91AA85D1
:10051000BB850C91041718F011F00C942303A889E3
:10052000B9898C91AC85BD858C93AA81BB814C9196
:10053000AC85BD850C91041718F011F00C941B03C9
:100540000E94180CA885B9850E94020D0C920E9489
:10055000150CAC85BD858C91AC81BD818C9387E0F9
:10056000AE81BF818C93AE81BF814C9100E00417B6
:1005700018F011F00C941303AE81BF818C91A88503
:10058000B9850E941F0D0E94150D0C9008226894D9
:1005900009F4E89416F00C94EB02AC81BD818C91C7
:1005A000D2018C9381E00E94EA0CAC85BD858C91D0
:1005B000D2018C9381E00E94EA0C8FEFD2018C93E0
:1005C00081E00E94EA0C0E942903269683E00E94A3
:1005D000E60C0C940703AC81BD818C91D2018C9305
:1005E00081E00E94EA0CAC85BD858C91D2018C9390
:1005F00081E00E94EA0C80E0D2018C9381E00E94AD
:10060000EA0C0E942903269683E00E94E60CAC8146
:10061000BD818C918F5F8C93AE81BF810E941B0C3A
:1006200010F00C94B302AC85BD858C91885F8C93DF
:1006300010F40C949502AA85BB858C918F5F8C93E6
:1006400010F40C94840287E0481A80E0580A2E9631
:10065000089581E00E94EA0C82E00E94EA0C81E0A9
:100660000E94EA0CA885B9850E941B0CA885B98553
:100670000C9148E00E94BB0DAC81BD810C93AC8114
:10068000BD810D91112740E850E00E94F00CAA8135
:10069000BB810D931C93AA81BB810D911C91AA85EE
:1006A000BB854D915527040F151FAA81BB810D9362
:1006B0001C93A885B9850C9148E00E94BB0DA881C8
:1006C000B9818C93AE81BF810C91003011F00C94F4
:1006D0008103E894A881B9818C91AA81BB81AD90F6
:1006E000BD90AFE5B0E0AA0DBB1D0E941F0D0E949A
:1006F000150D0C9016F0092201C0082A0C920C94DA
:1007000097036894A881B9818C91AA81BB81AD902F
:10071000BD90AFE5B0E0AA0DBB1D0E941F0D0E9469
:10072000150D0C9016F0092201C0082A0C9284E0E5
:10073000481A80E0580A2696089581E00E94EA0C43
:1007400081E00E94EA0C81E00E94EA0C82E00E94B3
:10075000EA0C81E090E0A881B9818D939C9380EBB5
:10076000AE81BF818C9380E4D2018C9381E00E94A2
:10077000EA0C0E94D804229681E00E94E60C80E0F8
:10078000AC81BD818C93AC81BD810C91073018F098
:1007900011F00C942B04AE81BF818C91D2018C930B
:1007A00081E00E94EA0C0E94D804229681E00E9417
:1007B000E60C80E1D2018C9381E00E94EA0C0E9459
:1007C000D804229681E00E94E60C80E0D2018C934E
:1007D00081E00E94EA0C0E94D804229681E00E94E7
:1007E000E60C0E94B20C18E70E94C30C10E40E94B1
:1007F000C30C81E0AA81BB818C93AA81BB810C913F
:10080000003818F011F00C941C04A881B981AD9047
:10081000BD90AFE5B0E0AA0DBB1D1C910E94C30CBA
:10082000A881B9810E941F0CAA81BB818C918F5F26
:100830008C9310F40C94FD030E94BD0CAE81BF811B
:100840008C918F5F8C93AC81BD818C918F5F8C93E9
:1008500010F40C94C30385E0481A80E0580A2896E7
:10086000089581E00E94EA0C81E00E94EA0C82E097
:100870000E94EA0C80EBAC81BD818C9380E4D201B4
:100880008C9381E00E94EA0C0E94D804229681E0B9
:100890000E94E60C80E0AA81BB818C93AA81BB8177
:1008A0000C91073018F011F00C94B004AC81BD81AC
:1008B0008C91D2018C9381E00E94EA0C0E94D804B2
:1008C000229681E00E94E60C80E1D2018C9381E0C7
:1008D0000E94EA0C0E94D804229681E00E94E60C55
:1008E00080E0D2018C9381E00E94EA0C0E94D8043F
:1008F000229681E00E94E60C0E94B20C18E70E944A
:10090000C30C10E40E94C30C81E090E0A881B9817F
:100910008D939C93A881B9810D911C91003850E072
:10092000150718F011F00C94A104AE81BF811C9141
:100930000E94C30CA881B9810E941F0C10F40C9472
:100940008A040E94BD0CAC81BD818C918F5F8C9319
:10095000AA81BB818C918F5F8C9310F40C944E0410
:1009600081E090E0A881B9818D939C93A881B981A1
:100970000D911C91003054E0150718F011F00C9403
:10098000D20480E0A881B981AD90BD90AFE5B0E020
:10099000AA0DBB1D8C93A881B9810E941F0C10F475
:1009A0000C94B60484E0481A80E0580A269608950C
:1009B0000E94B20C18E70E94C30C10E00E94C30C06
:1009C000A881B9811C910E94C30C0E94BD0C08959E
:1009D000AA9884E690E00E948E0CAA9A84E690E0A1
:1009E0000E948E0C8EEAD2018C9381E00E94EA0C68
:1009F0000E94D804229681E00E94E60C85EDD20187
:100A00008C9381E00E94EA0C0E94D804229681E037
:100A10000E94E60C80E8D2018C9381E00E94EA0CEF
:100A20000E94D804229681E00E94E60C88EAD20156
:100A30008C9381E00E94EA0C0E94D804229681E007
:100A40000E94E60C8FE3D2018C9381E00E94EA0CB5
:100A50000E94D804229681E00E94E60C83EDD20128
:100A60008C9381E00E94EA0C0E94D804229681E0D7
:100A70000E94E60C80E0D2018C9381E00E94EA0C97
:100A80000E94D804229681E00E94E60C8DE8D201F3
:100A90008C9381E00E94EA0C0E94D804229681E0A7
:100AA0000E94E60C84E1D2018C9381E00E94EA0C62
:100AB0000E94D804229681E00E94E60C80E2D201D6
:100AC0008C9381E00E94EA0C0E94D804229681E077
:100AD0000E94E60C80E0D2018C9381E00E94EA0C37
:100AE0000E94D804229681E00E94E60C81EAD2019D
:100AF0008C9381E00E94EA0C0E94D804229681E047
:100B00000E94E60C88ECD2018C9381E00E94EA0CF2
:100B10000E94D804229681E00E94E60C8AEDD20160
:100B20008C9381E00E94EA0C0E94D804229681E016
:100B30000E94E60C82E1D2018C9381E00E94EA0CD3
:100B40000E94D804229681E00E94E60C81E8D2013E
:100B50008C9381E00E94EA0C0E94D804229681E0E6
:100B60000E94E60C8FEFD2018C9381E00E94EA0C88
:100B70000E94D804229681E00E94E60C89EDD20101
:100B80008C9381E00E94EA0C0E94D804229681E0B6
:100B90000E94E60C81EFD2018C9381E00E94EA0C66
:100BA0000E94D804229681E00E94E60C8BEDD201CF
:100BB0008C9381E00E94EA0C0E94D804229681E086
:100BC0000E94E60C84EAD2018C9381E00E94EA0C38
:100BD0000E94D804229681E00E94E60C86EAD201A7
:100BE0008C9381E00E94EA0C0E94D804229681E056
:100BF0000E94E60C8FEAD2018C9381E00E94EA0CFD
:100C00000E94D804229681E00E94E60C84E690E0DF
:100C10000E948E0C089582E00E94EA0C82E00E94FD
:100C2000EA0C81E00E94EA0C81E00E94EA0C81E07B
:100C30000E94EA0C81E00E94EA0C81E00E94EA0C2A
:100C400081E00E94EA0C81E00E94EA0C81E00E94AF
:100C5000EA0C81E00E94EA0C81E00E94EA0C81E04B
:100C60000E94EA0C81E00E94EA0C81E00E94EA0CFA
:100C700081E00E94EA0C81E00E94EA0C82E00E947E
:100C8000EA0CAAA5BBA50E94CB0D082F41E0041BCE
:100C9000AA85BB850C93ACA1BDA10C91013011F0CC
:100CA0000C947406E0E0F0E080E090E0AE89BF894B
:100CB0000E94120DE0E0F0E081E090E0AC89BD8997
:100CC0000E94120DE0E0F0E082E090E0AA89BB898A
:100CD0000E94120DE0E0F0E083E090E0AC81BD8185
:100CE0000E94120D0C94BE06023011F00C949A066C
:100CF000E0E0F0E080E090E0AE89BF890E94120D54
:100D0000E0E0F0E081E090E0AC89BD890E94120D46
:100D1000E0E0F0E082E090E0AA89BB890E94120D39
:100D2000E0E0F0E083E090E0AC81BD810E94120D34
:100D30000C94BE06033011F00C94BE06E0E0F0E027
:100D400080E090E0AE89BF890E94120DE0E0F0E003
:100D500081E090E0AC89BD890E94120DE0E0F0E0F6
:100D600082E090E0AA89BB890E94120DE0E0F0E0E9
:100D700083E090E0AC81BD810E94120DAA89BB89FD
:100D80000C91AE89BF894C910E94BB0DA889B9898D
:100D90000C93AE89BF890C9148E0049FA88DB98D52
:100DA0000C92A88DB98D8C9181508C93A889B989AA
:100DB0008C9181508C9380E0AA8DBB8D8C93AA85F9
:100DC000BB854C91AA8DBB8D0C91041718F011F0C6
:100DD0000C942608AA8DBB8D0D9111270F5F1F4F14
:100DE000A8A1B9A10D931C93A8A1B9A18C91EAA5C2
:100DF000FBA501E00A93ABA1BCA10E94AB0DAAA187
:100E0000BBA18C91082F112700521040A881B981F5
:100E10000D931C93A881B9810D911C91AA89BB895E
:100E20004D9155270E94F00CA881B9810D931C9318
:100E3000A881B9810D911C910C5F1F4FA881B981C8
:100E40000D931C93AA8DBB8D0D911127AC89BD8983
:100E50004D9155270E94F00CA8A1B9A10D931C93A8
:100E6000A8A1B9A10D911C91A8A5B9A54D9155278F
:100E7000040F151FA8A1B9A10D931C9380E0AC85A8
:100E8000BD858C93A88DB98D4C91AC85BD850C9199
:100E9000041718F011F00C941E08A8A1B9A18C91A8
:100EA000A885B9858C9380E0AE85BF858C93A88991
:100EB000B9894C91AE85BF850C91041718F011F0DB
:100EC0000C941608ACA1BDA10C91013011F00C944A
:100ED0007507E0E0F0E0A881B9818D919C91AE8D1D
:100EE000BF8D0E94120D0C949307023011F00C94E8
:100EF0008507E0E0F0E0A881B9818D919C91AE8DED
:100F0000BF8D0E94120D0C949307033011F00C94C6
:100F10009307E0E0F0E0A881B9818D919C91AE8DBE
:100F2000BF8D0E94120DAC85BD850C91AEA1BFA1F5
:100F30004C91040FAE81BF810C9380E0AA81BB81EC
:100F40008C93AA81BB810C91073018F011F00C949E
:100F50000508AE8DBF8D8C9180FBAC81BD8188274B
:100F600080F98C93AC81BD810C91013011F00C940F
:100F7000D707A885B9858C91D2018C9381E00E9416
:100F8000EA0CA885B9858C91D2018C9381E00E94EE
:100F9000EA0C8FEFD2018C9381E00E94EA0C0E9450
:100FA0002903269683E00E94E60C0C94F307A8859B
:100FB000B9858C91D2018C9381E00E94EA0CA885BE
:100FC000B9858C91D2018C9381E00E94EA0C80E07B
:100FD000D2018C9381E00E94EA0C0E94290326969C
:100FE00083E00E94E60C91E0AE8DBF8D0E94FA0C6A
:100FF000AE81BF818C918F5F8C93AA81BB818C91D4
:101000008F5F8C9310F40C94A107A881B9810E9482
:101010001F0CA885B9858C918F5F8C93AE85BF8599
:101020008C918F5F8C9310F40C945707AC85BD8521
:101030008C91885F8C9310F40C944207AA8DBB8D21
:101040008C918F5F8C9310F40C94DF0685E1481A25
:1010500080E0580AA496089582E00E94EA0C82E09B
:101060000E94EA0C82E00E94EA0C82E00E94EA0CF4
:1010700082E00E94EA0C01E010E0AC85BD854D9154
:101080005527041B150BA885B9850D931C9380E08B
:1010900090E0AE81BF818D939C930EEF1FEFAC85E6
:1010A000BD854D9155270E94F00CAC81BD810D93FB
:1010B0001C9380E090E0AA81BB818D939C93AC85CA
:1010C000BD858C91A881B9818D9388278C93A8893F
:1010D000B9898C91D2018C9381E00E94EA0CA88995
:1010E000B9890C91AE85BF854C91040FD2010C9348
:1010F00081E00E94EA0CAC89BD898C91D2018C936D
:1011000081E00E94EA0CAC89BD890C91AA89BB8957
:101110004C91041BD2010C9381E00E94EA0C81E007
:10112000D2018C9381E00E94EA0CAC89BD898C913C
:10113000D2018C9381E00E94EA0C0E94100A2C9646
:1011400086E00E94E60CA881B9814D915C91AA814C
:10115000BB810D911C91041715070CF402C00C946F
:101160000A0AA885B9850D911C91003050E0150739
:101170000CF002C00C94D808A881B9810E94260CFA
:10118000AC81BD810D911C910E5F1F4FAC81BD8163
:101190000D931C93A885B9850D911C91AC81BD81DF
:1011A0004D915C91040F151FA885B9850D931C9373
:1011B000AA81BB810E941F0CAE81BF810D911C9141
:1011C0000E5F1F4FAE81BF810D931C93A885B9851B
:1011D0000D911C91AE81BF814D915C91040F151F43
:1011E000A885B9850D931C93A885B9850E941F0C0D
:1011F000A889B9890C91A881B9814C91040FD201B9
:101200000C9381E00E94EA0CA889B9890C91AC8109
:10121000BD814C91040FD2010C9381E00E94EA0C35
:10122000AC89BD890C91AC81BD814C91040FD20178
:101230000C9381E00E94EA0CAC89BD890C91A885D1
:10124000B9854C91041BD2010C9381E00E94EA0CF9
:1012500081E0D2018C9381E00E94EA0CAC89BD89C7
:101260008C91D2018C9381E00E94EA0C0E94100ABA
:101270002C9686E00E94E60CA889B9890C91A88179
:10128000B9814C91041BD2010C9381E00E94EA0CBD
:10129000A889B9890C91AC81BD814C91040FD20110
:1012A0000C9381E00E94EA0CAC89BD890C91AC8161
:1012B000BD814C91041BD2010C9381E00E94EA0C89
:1012C000AC89BD890C91A885B9854C91041BD201CC
:1012D0000C9381E00E94EA0C81E0D2018C9381E0C2
:1012E0000E94EA0CAC89BD898C91D2018C9381E07B
:1012F0000E94EA0C0E94100A2C9686E00E94E60CDE
:10130000A889B9890C91AA81BB814C91040FD201A3
:101310000C9381E00E94EA0CA889B9890C91AA81FA
:10132000BB814C91040FD2010C9381E00E94EA0C26
:10133000AC89BD890C91AE81BF814C91040FD20163
:101340000C9381E00E94EA0CAC89BD890C91AE81BE
:10135000BF814C91041BD2010C9381E00E94EA0CE6
:1013600081E0D2018C9381E00E94EA0CAC89BD89B6
:101370008C91D2018C9381E00E94EA0C0E94100AA9
:101380002C9686E00E94E60CA889B9890C91AA8166
:10139000BB814C91041BD2010C9381E00E94EA0CAA
:1013A000A889B9890C91AA81BB814C91040FD20103
:1013B0000C9381E00E94EA0CAC89BD890C91AE814E
:1013C000BF814C91041BD2010C9381E00E94EA0C76
:1013D000AC89BD890C91AE81BF814C91041BD201B7
:1013E0000C9381E00E94EA0C81E0D2018C9381E0B1
:1013F0000E94EA0CAC89BD898C91D2018C9381E06A
:101400000E94EA0C0E94100A2C9686E00E94E60CCC
:101410000C94A3088AE0481A80E0580A2A96089596
:1014200081E00E94EA0C81E00E94EA0C84E00E94C4
:10143000EA0C84E00E94EA0C81E00E94EA0C84E05D
:101440000E94EA0C81E00E94EA0C81E00E94EA0C12
:1014500081E00E94EA0C81E00E94EA0CEC8DFD8D97
:10146000D080EE24FF2400270E94470E0E94E90D41
:101470002F933F934F935F93E88DF98DD080EE24A7
:10148000FF2400270E94470E5F914F913F912F91BB
:101490000E94170FEDE0F0E0AC85BD850E94A50D20
:1014A000EE8DFF8DD080EE24FF2400270E94470E92
:1014B0000E94E90D2F933F934F935F93EA8DFB8D2D
:1014C000D080EE24FF2400270E94470E5F914F91A9
:1014D0003F912F910E94170FEDE0F0E0AE85BF85A0
:1014E0000E94A50D80E0AA85BB858C93EC85FD85C7
:1014F0000E94740FEDE0F0E0A885B9850E94A50D6B
:10150000E885F9850E94EF0DAA89BB89DC92EE85FA
:10151000FF850E94740FEDE0F0E0A885B9850E9478
:10152000A50DE885F9850E94EF0DA889B989DC929F
:10153000A889B9894C91AA89BB890C91041718F024
:1015400011F00C94A50A0C945B0BEC85FD850E94B0
:10155000E40DEE85FF850E94DF0D0E947F0EEDE019
:10156000F0E0A885B9850E94A50DA88DB98D4C9194
:10157000AC8DBD8D0C91041718F011F00C94C20ABB
:101580000C94D60AAC8DBD8D0C91A88DB98D8C9123
:10159000AC8DBD8D8C93A88DB98D0C93AA8DBB8D10
:1015A0008C91AA81BB818C930C94DC0AAE8DBF8D8B
:1015B0008C91AA81BB818C93AC8DBD8D8C91AA89B5
:1015C000BB898C93A88DB98D4C91AA89BB890C914C
:1015D000041718F011F00C94590BE885F9850E9456
:1015E000E40DEA85FB85D080EE24FF2400270E94CD
:1015F000470E0E94D80EEDE0F0E0AE85BF850E9458
:10160000A50DEE85FF850E94EF0DAE81BF81DC92B6
:10161000AE81BF810C91AA81BB814C91040FAE8138
:10162000BF810C9381E0A881B9818C93AE89BF8979
:101630004C91A881B9810C91041718F011F00C9409
:101640004C0BAE81BF818C91D2018C9381E00E94C2
:10165000EA0CAC89BD898C91D2018C9381E00E9407
:10166000EA0CA88DB98D8C91D2018C9381E00E94F7
:10167000EA0C0E942903269683E00E94E60CAE81C4
:10168000BF818C918F5F8C93A881B9818C918F5F82
:101690008C9310F40C94160BAA85BB858C918F5FEC
:1016A0008C93AA89BB898C918F5F8C9310F40C94D6
:1016B000E20A0C940F0CEE85FF850E94E40DEC8588
:1016C000FD850E94DF0D0E947F0EEDE0F0E0A88511
:1016D000B9850E94A50DAA8DBB8D4C91AE8DBF8D95
:1016E0000C91041718F011F00C94780B0C948C0BDF
:1016F000AE8DBF8D0C91AA8DBB8D8C91AE8DBF8DA3
:101700008C93AA8DBB8D0C93A88DB98D8C91AA81D9
:10171000BB818C930C94920BAC8DBD8D8C91AA8166
:10172000BB818C93AE8DBF8D8C91A889B9898C9328
:10173000AA8DBB8D4C91A889B9890C91041718F01A
:1017400011F00C940F0CE885F9850E94E40DEA85F0
:10175000FB85D080EE24FF2400270E94470E0E94C4
:10176000D80EEDE0F0E0AC85BD850E94A50DEC85BE
:10177000FD850E94EF0DAC81BD81DC92AC81BD8105
:101780000C91AA81BB814C91040FAC81BD810C935B
:1017900081E0A881B9818C93AE89BF894C91A881E1
:1017A000B9810C91041718F011F00C94020CA8895F
:1017B000B9898C91D2018C9381E00E94EA0CAE81B0
:1017C000BF818C91D2018C9381E00E94EA0CA88D9C
:1017D000B98D8C91D2018C9381E00E94EA0C0E9419
:1017E0002903269683E00E94E60CAC81BD818C9192
:1017F0008F5F8C93A881B9818C918F5F8C9310F44B
:101800000C94CC0BAA85BB858C918F5F8C93A88997
:10181000B9898C918F5F8C9310F40C94980B83E1B1
:10182000481A80E0580A649608958E2E9F2E0895D7
:10183000E82DF92D08958C9181508C930895ED91A8
:10184000FC91EF5FFF4FFC93EE930895ED91FC91B7
:10185000E150F040FC93EE93089505D00E94F00C07
:1018600000FC0CD008950024E89457FF02C009D072
:10187000689400F80BD010F80124089502D009D024
:101880000895509540954F5F5F4F0895E89417FF76
:101890000895009510950F5F1F4F689408955D9B04
:1018A000FECF8CB9089588EE93E038D03197D9F700
:1018B00008953197F1F70895689462F80895E894CF
:1018C00062F808958F939F938BEC90E00197F1F766
:1018D0009F918F91089580952AE090E0089410F4EC
:1018E000D89802C0D89A0000EDDFECDF9695879576
:1018F0002A95A9F708950E94020D802D11F0EBDFC3
:10190000FACF08958DE0E7DF8AE0E5CFA2E5B7E002
:101910008D91882311F0DFDFFBCF0895EF93FF93C4
:10192000EE27E82BE92B31F0E0EAFFE03197F1F701
:101930000197D1F7FF91EF910895A198A098A99AE6
:10194000A89A0895689446BF8F939F9388279927F4
:10195000019621F046B747FFFBCFE8949F918F9106
:1019600062F8089544EAEEDF41B1487F483019F04B
:10197000403109F0689462F8089544E946BF46B7DB
:1019800044FDFDCF089513B944E8DCDF8F939F93A6
:1019900088279927019669F041B1487F483FD1F3E4
:1019A000E894483139F0483229F0403419F0403594
:1019B00009F068949F918F9162F8089501911191B7
:1019C000219130810895481A590A0895481A8827A4
:1019D000580A089599275A924A92480E591E089516
:1019E0000F92B801469F8001479F100D569F100D22
:1019F0000F900895903029F08C9186959A95E9F78B
:101A00008C930895C89531960020089591E005C003
:101A100092E003C094E001C098E0F4DF0D929A9543
:101A2000E1F70895E80FF91FF1CF91E0882321F045
:101A30008894991F8A95E9F7892F909508958830A1
:101A400018F011968850FBCF0895000F111F221F28
:101A5000331F089500951095209530950F5F1F4F07
:101A60002F4F3F4F0895019110810FC00E94DE0C4F
:101A70000EC00E94DE0C10C00191108117FF05C03E
:101A80003FEF2FEF04C0008111272227332737FFB4
:101A900003C0E0DF8DE28D93CF92DF92EF92AA2414
:101AA000BB24CC24DD24EE2440E2EAE0FF2755E00D
:101AB00093E38081890F87FD9F7083FD907F891B51
:101AC00081935A95A9F7C1DFAA1CBB1CCC1CDD1C55
:101AD000EE1C4A9551F7E894EFE0FF2782910CD075
:101AE000EB30E0F71EF068948A2D0AD088278D939A
:101AF000EF90DF90CF900895982F829501D0892F95
:101B00008F70805D26F0803309F4089568948D937A
:101B1000089541E003C042E001C044E0E40F88279B
:101B2000F81F8291982F829506D0892F04D04A956C
:101B3000C1F70C94A20D8F708A3008F0895F805D28
:101B40008D93089588278D93089594E081918D93C6
:101B50009A95E1F7089509919191992359F08A9501
:101B6000D9F73197002331F081918D930A9588231D
:101B7000C9F70895E7CFFF93881BF9E0001FFA9596
:101B800011F4FF910895881F841B18F4840F889422
:101B9000F5CF0894F3CF8FEF83959D919923E1F7CB
:101BA0000895B7FE089590E8B91611F4D0FE08958F
:101BB0009FEFD91AE90AF90A09F403950895D1901B
:101BC000E190F190019108952191319141915191CC
:101BD0000895502F2D2D3E2D4F2D612F0895EFDFAD
:101BE000992711278F2D880F80E8F82A802F881FCA
:101BF00008F41FEF41F08F57082F07FD04C0003293
:101C000040F08FEF01C08827982FD82EE82EF82EAD
:101C100009C08FE1801B082FF694E794D79497951D
:101C20000A95D1F7112351F09095D094E094F09457
:101C300081E0980F8827D81EE81EF81E0F2DFE2C75
:101C4000ED2CD92E0895D094E094F09491E0D90E23
:101C50009927E91EF91E10950895652F90E8440F05
:101C6000551F5927990F47956078102F90E8FF0C62
:101C7000001F0927990FF794107800380895FF0C7A
:101C800090E89027110F9795F794092F0895102F3A
:101C9000BD2CDE2CEF2CF02E11234AF4B094D094FE
:101CA000E094F0949FEFB91AD90AE90AF90A0EE113
:101CB000FF2039F4FE2CED2CDB2CBB240850C2F79E
:101CC00052C032F00A95BB0CDD1CEE1CFF1CF9CF94
:101CD00068DFD5CF2DEC3CEC4CEC5DE366270FC004
:101CE0006EDF77DFDD24EE2490E8F92E0FE307C0E6
:101CF0006BDF05C02227332740E251E466275523D6
:101D000051F1002381F1A9DF71F1162700585058D5
:101D10000894050B18F407FD03C025C007FD23C078
:101D2000469537952795F694E794D79425D0FF20CC
:101D30002AF0DD0CEE1CFF1C015073F09D2D9695D2
:101D400048F0DD203AF4EE202AF491E0D90E9927EC
:101D5000E91EF91E94CF07C09FE7092FF92A9FEFCC
:101D6000D92EE92E0895DD24EE24FF240027112723
:101D700008950FE79FEFF2CF9F929924AA24BB24E6
:101D800088E1D216E306F40628F0D21AE30AF40A30
:101D9000089401C08894991CAA1CBB1CDD0CEE1C85
:101DA000FF1C8A9571F7D92CEA2CFB2C9F90089583
:101DB00054DFD9F05038C9F016270058952F9058A5
:101DC0000894091F12F418F40EC008F00EC00FD0CA
:101DD000FF202AF0BB0CDD1CEE1CFF1C02C003958B
:101DE00013F0DFDE4CCF0C94AC0E0C94B30E9F922C
:101DF000FF92EF928D2DFF24EE24DD24BB2493E08F
:101E0000849F1001829FB00CD11CE21CF31C839FA5
:101E1000D00CE11C2224F21C9A9531F0BD2CDE2C52
:101E2000EF2CFF248F91ECCF9F900895CDDE15DF2E
:101E3000503829F090E869270CC00AF045D01FCF30
:101E40005FE322273327442701C0BEDE06DF503878
:101E5000B1F3003899F3902F951B8BF312F434D023
:101E6000FACF983118F0222733274427983028F0EA
:101E7000232F342F44279850F9CF992329F04695E2
:101E8000379527959A95D9F7912F962742F014D038
:101E9000B0F6F794E794D7940F5F8BF65DCF10D030
:101EA00051F008F4D0DEFF2052F2DD0CEE1CFF1CD6
:101EB0000150CBF751CF57CFD20EE31EF41E089539
:101EC000D21AE30AF40A0895DF92EF92FF920F9379
:101ED0001F93D22EE32EF42E052F162F6F915F91B4
:101EE0004F913F912F9108956ADE0F7708955374B3
:101EF000617274006D6F646520303A20000020002C
:101F000073756D613A006D6F646520313A20000091
:00000001FF
