:100000000C942A001895000018950000189500001F
:10001000189500001895000018950000189500002C
:10002000189500001895000018950000189500001C
:10003000189500000C942A021895000018950000ED
:1000400018950000189500001895000018950000FC
:10005000189500008FE58DBFC0E4EEE14E2E88E0DC
:100060008EBFD8E0F8E05F2EA89584B7082E877F72
:1000700084BF88E1992781BD91BDEEEFF7E0A0E64E
:10008000B0E088278D933197E9F789E789B980E057
:1000900080BD88E18AB96624579AD09AD89A789414
:1000A000539A5498E3E0F0E00E94CF01E6EFF4E0C9
:1000B0000E94F7010E94FE0184E690E00E940A027D
:1000C00080E0D2018C9381E00E9420020E94040112
:1000D000229681E00E941C020091A700043F81E06B
:1000E00009F080E08F930091E700003081E009F093
:1000F00080E09F918923882311F40C94B100ECEFE8
:10010000F4E00E94F70183E08093E9000091E900A8
:10011000023418F011F00C94AB00A6E0B8E0E9EE60
:10012000F0E0A190BB24E4EAF0E0EA0DFB1D0E94A0
:100130005F020E940202E6E0F5E00E94F7018AE019
:1001400090E00E940A02A9EEB0E08C918F5F8C9340
:1001500010F40C948600E8E0F5E00E94F7010E949C
:10016000FE0181E0D2018C9381E00E9420020E9476
:100170000401229681E00E941C020091A700043F26
:1001800081E009F080E08F930091E700003081E08A
:1001900009F080E09F918923882311F40C940201D7
:1001A000EEE0F5E00E94F70183E08093E900009122
:1001B000E900043318F011F00C94FC00A6E0B8E05C
:1001C000E9EEF0E0A190BB24E4EAF0E0EA0DFB1DCB
:1001D0000E945F020E940202E6E0F5E00E94F70141
:1001E0008AE090E00E940A02A9EEB0E08C918F5F55
:1001F0008C9310F40C94D700E8E0F5E00E94F7012E
:100200000E94FE010C945C0081E00E94200281E0CB
:100210000E94200284EF0E94CB0186E50E94CB0160
:1002200088E00E94CB018EEA0E94CB01AC81BD81A7
:100230000C91003011F00C94320184EF0E94CB013C
:1002400087E50E94CB0181E00E94CB0180E00E9403
:10025000CB0184EB0E94CB0182E4AA81BB818C9309
:100260000C944C01AC81BD810C91013011F00C94C7
:100270004C0184EF0E94CB0187E50E94CB0181E015
:100280000E94CB0181E00E94CB0183EB0E94CB0155
:1002900084E3AA81BB818C935398549AA2EAB0E07C
:1002A0000E94560280E08093E70081E0A881B98136
:1002B0008C93AA81BB814C91A881B9810C910417C0
:1002C00018F011F00C9499010E94A101082F003040
:1002D00011F00C946D010C9464010E94A701A88197
:1002E000B981AD90BB24A4EAB0E0AA0DBB1D8C93EC
:1002F000A881B9810C91023018F011F00C948201A0
:100300000C9491010091E700A881B981AD90BB24C4
:10031000A4EAB0E0AA0DBB1D4C91040FA7EEB0E01B
:100320000C93A881B9818C918F5F8C9310F40C94FD
:100330005901539A549882E0481A80E0580A24964A
:1003400008958091A400882309F081E008950F9218
:100350009F93AF93BF937F938091A4008823E1F391
:10036000F8948091A4008A958093A4009091A200B3
:10037000A0E6B0E0A90F0024B01D8C9193959234B3
:1003800009F499279093A20078947F91BF91AF913F
:100390009F910F9008955D9BFECF8CB9089588EED4
:1003A00093E038D03197D9F708953197F1F7089550
:1003B000689462F80895E89462F808958F939F9383
:1003C0008BEC90E00197F1F79F918F9108958095C4
:1003D0002AE090E0089410F4D89802C0D89A00005F
:1003E000EDDFECDF969587952A95A9F708950E9491
:1003F0002602802D11F0EBDFFACF08958DE0E7DFC4
:100400008AE0E5CFA6E0B8E08D91882311F0DFDF28
:10041000FBCF0895EF93FF93EE27E82BE92B31F004
:10042000E0EAFFE03197F1F70197D1F7FF91EF9103
:100430000895481A590A0895481A8827580A0895AD
:1004400099275A924A92480E591E0895C895319696
:10045000002008957F930F93AF93BF938F939F9343
:100460008FB78F938091A40002E4081B21F49CB104
:100470000E94D80112C00091A300A0E6B0E0772747
:100480009CB1A00FB71F9C9383958093A400039504
:10049000023409F400270093A3008F918FBF9F912E
:1004A0008F91BF91AF910F917F9118956FB7F8948D
:1004B000882793E08D939A95E9F76FBF089541E0FF
:1004C00003C042E001C044E0E40F8827F81F829196
:1004D000982F829506D0892F04D04A95C1F70C94A5
:1004E00078028F708A3008F0895F805D8D9308955F
:1004F00088278D9308955374617274006D6F6465DD
:1005000020303A2000002000206F6B2000006D6F2B
:08051000646520313A2000006F
:00000001FF
