:100000000C942A001895000018950000189500001F
:10001000189500001895000018950000189500002C
:10002000189500001895000018950000189500001C
:10003000189500000C941D011895000018950000FB
:1000400018950000189500001895000018950000FC
:10005000189500008FE58DBFC0E4E6E24E2E88E0E3
:100060008EBFD8E0F8E05F2EA89584B7082E877F72
:1000700084BF88E1992781BD91BDEEEFF7E0A0E64E
:10008000B0E088278D933197E9F787E689B980E05A
:1000900080BD88E18AB96624579A789481E080937C
:1000A000E500E2E0F0E00E94F600EAE5F3E00E94FD
:1000B000E8000E94EF00E1E0F0E00E94F60080E03E
:1000C0008093E40081E08093E5000091E500003436
:1000D00018F011F00C9488000E94B600082F003030
:1000E00011F40C9480000E94BC00A5EEB0E0AD902D
:1000F000BB24A2EAB0E0AA0DBB1D8C930E94A6000F
:10010000A5EEB0E08C918F5F8C9310F40C94650099
:100110000091A300043F11F00C94A100A4EEB0E004
:100120008C9180508C93E0E6F3E00E94E800E4EECE
:10013000F0E0AEE0B8E00E9467010E94E0000E949B
:10014000EF0080E08093A3000C945B000091E4003A
:10015000A5EEB0E0AD90BB24A2EAB0E0AA0DBB1DB5
:100160004C91040FA4EEB0E00C9308958091A2008E
:10017000882309F081E008950F929F93AF93BF9376
:100180007F938091A2008823E1F3F8948091A200EC
:100190008A958093A2009091A000A0E6B0E0A90FFC
:1001A0000024B01D8C919395903409F49927909375
:1001B000A00078947F91BF91AF919F910F90089587
:1001C000AEE0B8E08D91882311F00CD0FBCF0895FC
:1001D0000E941901802D11F005D0FACF08958DE00D
:1001E00001D08AE05D9BFECF8CB9089588EE93E044
:1001F0000CD03197D9F708953197F1F708956894A5
:1002000062F80895E89462F80895EF93FF93EE275B
:10021000E82BE92B31F0E0EAFFE03197F1F70197A5
:10022000D1F7FF91EF9108950191119121913081C2
:100230000895C8953196002008957F930F93AF934A
:10024000BF938F939F938FB78F938091A20000E409
:10025000081B21F49CB10E94FF0012C00091A10074
:10026000A0E6B0E077279CB1A00FB71F9C938395C1
:100270008093A2000395003409F400270093A100A5
:100280008F918FBF9F918F91BF91AF910F917F9170
:100290001895000F111F221F331F08950095109508
:1002A000209530950F5F1F4F2F4F3F4F08950191BD
:1002B00010810FC00E9414010EC00E94140110C0D2
:1002C0000191108117FF05C03FEF2FEF04C000819F
:1002D00011272227332737FF03C0E0DF8DE28D93FC
:1002E000CF92DF92EF92AA24BB24CC24DD24EE240B
:1002F00040E2EAE0FF2755E093E38081890F87FD24
:100300009F7083FD907F891B81935A95A9F7C1DF68
:10031000AA1CBB1CCC1CDD1CEE1C4A9551F7E894B2
:10032000EFE0FF2782910CD0EB30E0F71EF06894ED
:100330008A2D0AD088278D93EF90DF90CF90089573
:10034000982F829501D0892F8F70805D26F08033A1
:1003500009F4089568948D9308955374617274003C
:0C036000636865636B73756D3A200000E4
:00000001FF
